S011000049435F5445535445522E7372656351
S11300000C94A5150C9456180C9482180C94AE18E4
S11300100C94C2150C94C2150C94C2150C94C21500
S11300200C94C2150C94C2150C94C2150C94C215F0
S11300300C94C2150C94C2150C94C2150C94C215E0
S11300400C94C2150C94C2150C94C2150C94C215D0
S11300500C94C215BA2101009FFC76006C0062006A
S1130060000500000000000000000000FFFFFFFF8B
S1130070FFFFFFFFFFFF00883CB8129918B409CABC
S1130080C0210100ED36AE009E008E000008A000E5
S1130090A000A000A000A000A000A000A000FF3FBE
S11300A0FF3FFF3FFF3FFF3FFF3FFF3FFF3F012079
S11300B000201E3F0633183C003F1E3000303E1D1A
S11300C000005B3BDC00D400CC0000040000000016
S11300D000000000FF3FFF3FFF3FFF3F0020B63618
S11300E0AD2D1B3B3D1D00008FFF22010A01F200D4
S11300F0000C0000000000000000000000000000F0
S113010000000000000000000000FFFFFFFFFFFFF1
S1130110FFFFFFFFFFFFFFFFFFFFFFFFFFFFFFFFEB
S1130120FFFF12EA499513D548AA13C948B613CE5E
S113013048B119CC42B325CC0AB3331D00007E1854
S11301406801580148010008000000000010001078
S11301500010080008000800FFFFFFFFFFFFFFFF7B
S1130160FFFFFFFFFFFFFFFF99349124F2A4F54442
S1130170F6C4B0C250C570C3321D00004F3EA60184
S11301809601860100080400040004000400000431
S1130190000400040004FF3FFF3FFF3FFF3FFF3F19
S11301A0FF3FFF3FFF3FAA229122A9229B22A82AB8
S11301B02831A832283B301D00005F3FF801DE01E2
S11301C0C401000D00080008000800080008000829
S11301D00008000800080008000800080008FF3FA5
S11301E0FF3FFF3FFF3FFF3FFF3FFF3FFF3FFF3F1B
S11301F0FF3FFF3FFF3FFF3F3C3082278230823189
S113020082332237223026302E309E303E379E37BE
S11302109A36291D00007F3F400230022002000868
S113022000000000000000000000000000000000CA
S1130230FF3FFF3FFF3FFF3FFF3FFF3FFF3FFF3FCA
S11302408020AA35952A3F3F062038200027013810
S1130250261D00005F3F7E026E025E020008000061
S11302600000000000000000000000000000FF3F4C
S1130270FF3FFF3FFF3FFF3FFF3FFF3FFF3F9F3FEA
S1130280202083209C208027803835352A2A251D6C
S113029000007F3CB802AA029C0200070000000094
S11302A000000000000000000000FF3FFF3FFF3F90
S11302B0FF3FFF3FFF3FFF3FBF3F15342A28002089
S11302C00721B820003E241D0000FF30E402DC02B8
S11302D0D40200040000000000000000FF3FFF3FC4
S11302E0FF3FFF3FBF3695292A39002965230100C6
S11302F0FFFE0E030403FA020005000800080008CC
S113030000040004FFFEFFFFFFFFFFFFFFFF55B0E7
S113031055A255A255B355B26323010080BE4203D2
S11303203403260300070000000000040004000456
S11303300004000880BEFFFFFFFFFFFFFFFFFFFF79
S1130340FFFF0080008200A200A200A200A207E238
S11303505D230100FFFE7A036C035E0300070008BF
S1130360000000000004000400040004FFFEFFFF7E
S1130370FFFFFFFFFFFFFFFFFFFF55B255A355B37C
S113038055B255B355925593221D00005F3FA20309
S11303909C0396030003000000000000FF3FFF3FA2
S11303A0FF3FBF3FA73800201F1D00007F3FDE0333
S11303B0CA03B603000A00000000000000000000A9
S11303C000000000000000000000FF3FFF3FFF3F6F
S11303D0FF3FFF3FFF3FFF3FFF3FFF3FFF3F0F2137
S11303E0003F813B82398337843585338631872FBB
S11303F0882D1B1D00005F3F280414040004000A1C
S113040000000000000000000000000000000000E8
S113041000000000FF3FFF3FFF3FFF3FFF3FFF3F64
S1130420FF3FFF3FFF3FFF3F2133A232A52186203C
S1130430A82130239822AD2033309E301A1D0000AD
S11304405F3F5A0452044A04000400000000000004
S11304500000FF3FFF3FFF3FFF3FA0281F3BAB29AA
S11304601938171D0000F780980484047004000AEA
S11304700000000000000000000000000000000078
S113048000000000FFFFFFFFFFFFFFFFFFFFFFFF74
S1130490FFFFFFFFFFFFFFFF1CA04CF31DC44DC176
S11304A01E934E891F984FE33C806C83161D0000F9
S11304B0F780E204CE04BA04000A00000000000041
S11304C00000000000000000000000000000FFFF2A
S11304D0FFFFFFFFFFFFFFFFFFFFFFFFFFFFFFFF28
S11304E0FFFF1CA04CF31DC44DC11E934E891F98E1
S11304F04FE33C806C83121D000080F82C05180526
S11305000405000A000000000000000000000000D4
S11305100000000000000000FFFFFFFFFFFFFFFFDF
S1130520FFFFFFFFFFFFFFFFFFFFFFFF7E877DC78A
S11305307BA777E76F975FD73FB77FF67F8D7FCB3A
S1130540101D00005F3F720560054E0500090000A4
S11305500000000000000000000000000000000097
S1130560FF3FFF3FFF3FFF3FFF3FFF3FFF3FFF3F97
S1130570FF3FA020A121A222A323A828A929AA2AB7
S1130580AB2B1F3F992201004338CE05B0059205DD
S1130590000F000000000000000000000000000048
S11305A00000000000000000000000000000000047
S11305B0433843384338FF3FFF3FFF3FFF3FFF3F90
S11305C0FF3FFF3FFF3FFF3FFF3FFF3FFF3F002055
S11305D000200020033801300424053408220932A5
S11305E00C260D36102111311425153596220100E3
S11305F08BE82A061206FA05000C000000000140F0
S113060001400140014001400140014001400140DE
S113061001408BE8FFFFFFFFFFFFFFFFFFFFFFFF2E
S1130620FFFFFFFFFFFFFFFFFFFF02A0008004901A
S1130630108414942082249230863496408144910C
S1130640008092220100F339600658065006000427
S11306500000000000000000FF3FFF3FFF3FFF3F9E
S113066000209D2E2E37B3390E1D00005B3B8606FD
S11306707E06760600040000000000000000FF3F34
S1130680FF3FFF3FFF3FA424AD2DB6361B3B87221F
S11306900100C9C9AC06A4069C06000400000000C1
S11306A000000000FFFFFFFFFFFFFFFF2AAA5DDD40
S11306B055D514940D1D00005B3BD206CA06C20634
S11306C000040000000000000000FF3FFF3FFF3F68
S11306D0FF3FA424AD2DB6361B3B80220100ABEABC
S11306E0F806F006E8060004000000000000000020
S11306F0FFFFFFFFFFFFFFFF7FFF559554952AAAD9
S11307007F220100ABEA220718070E07000500004C
S11307100000000000000000FFFFFFFFFFFFFFFFDD
S1130720ABEA7FFF00807EBF608002827E220100F0
S1130730ABEA520746073A07000600000000000033
S1130740000000000000FFFFFFFFFFFFFFFFFFFFAF
S1130750FFFF559554D57FFF7EFF2AAA54957D222D
S11307600100ABEA8C077C076C070008000000005E
S1130770000000000000000000000000FFFFFFFF79
S1130780FFFFFFFFFFFFFFFFFFFFFFFF7FFF7EFF76
S11307907EBF00807FBF7EFF559554D5081D0000A5
S11307A05B3BBA07B207AA07000400000000000080
S11307B00000FF3FFF3FFF3FFF3F0020B62DAD3657
S11307C0BF3F061D00007F3FF807E407D007000A7B
S11307D00000000000000000000000000000000015
S11307E000000000FF3FFF3FFF3FFF3FFF3FFF3F91
S11307F0FF3FFF3FFF3FFF3F3F2CBE2CBD2CBB2CD8
S1130800B72CAF2C9F2CBF28BF2481203A22010093
S1130810FF8722081E081A08000200040004FFFFD4
S1130820FFFF25D125AB362201009BE4580846087A
S1130830340800090800080008000800080008003F
S11308400800080008009BE4DFE4DFE4DFE4DFE401
S1130850DFE4DFE4DFE4DFE4018001840184418438
S11308604184018401844184418435220100673E2E
S1130870A80890087808000C0000000000000000A0
S11308800000000000000000000000000000000064
S1130890FF3FFF3FFF3FFF3FFF3FFF3FFF3FFF3F64
S11308A0FF3FFF3FFF3FFF3F003E0026002500279C
S11308B010231027082308271823182780238027AC
S11308C0342201009BEFE608DA08CE080006000097
S11308D0080008000800080008009BEFFFFFFFFF66
S11308E0FFFFFFFFFFFF01800184018441844184F5
S11308F001842B220100F6ED18090C0900090006F9
S1130900000000000000000000000000FFFFFFFFE7
S1130910FFFFFFFFFFFFFFFF008048807FFF2DBA2E
S113092031E24E9D28220100CF3F5209420932098B
S113093000080000000000000000000000000000AB
S11309400000FF3FFF3FFF3FFF3FFF3FFF3FFF3FF1
S1130950FF3F2935922AAB3F1020AB30203F233391
S11309609826041D0000F62D8009780970090004FA
S11309700000000000000000FF3FFF3FFF3FFF3F7B
S1130980093292242429B62D031D00005F37B609CD
S1130990A6099609000800000000000000000000FD
S11309A0000000000000FF3FFF3FFF3FFF3FFF3F0D
S11309B0FF3FFF3FFF3FA028043109220D331224DB
S11309C015351B261F371A220100F339E409DC0907
S11309D0D40900040000000000000000FF3FFF3FB6
S11309E0FF3FFF3F0C2691282231BF3F1422010014
S11309F0CF3F220A0E0AFA09000A00000000000094
S1130A000000000000000000000000000000FF3FA4
S1130A10FF3FFF3FFF3FFF3FFF3FFF3FFF3FFF3FE2
S1130A20FF3F302085320A2D8B3D042E8F3F8120DD
S1130A300737862B8D39021D00005B3B540A4C0A94
S1130A40440A00040000000000000000FF3FFF3FD4
S1130A50FF3FFF3FA424AD36B62D1B3B13220100FC
S1130A6087F08A0A7A0A6A0A000800000000000077
S1130A7000000000000000000000FFFFFFFFFFFF78
S1130A80FFFFFFFFFFFFFFFFFFFF01A002B004B065
S1130A900890119022904390049112220100B7F61D
S1130AA0D00ABC0AA80A000A0000000000000000E6
S1130AB0000000000000000000000000FFFFFFFF36
S1130AC0FFFFFFFFFFFFFFFFFFFFFFFFFFFFFFFF32
S1130AD048C97FFF48896C9B12A436B649895BAD2F
S1130AE0259237B611220100B7F61A0B060BF20A4B
S1130AF0000A0000000000000000000000000000E8
S1130B00000000000000FFFFFFFFFFFFFFFFFFFFEB
S1130B10FFFFFFFFFFFFFFFFFFFF48C97FFF0080CC
S1130B2024925AAD7EBF018013A46D9B7FBF0D221A
S1130B300100BFFE5C0B4C0B3C0B000800000000E6
S1130B40000000000000000000000000FFFFFFFFA5
S1130B50FFFFFFFFFFFFFFFFFFFFFFFF41C17FFF1D
S1130B600080608300A050A502804A890B22010006
S1130B70CFFF9A0B8A0B7A0B0008000000000000DC
S1130B8000000000000000000000FFFFFFFFFFFF67
S1130B90FFFFFFFFFFFFFFFFFFFF25A815D425D2AE
S1130BA015D615D125D515D325D7011D00005F3FD6
S1130BB0F80BD80BB80B0010000000000000000078
S1130BC00000000000000000000000000000000021
S1130BD00000000000000000FF3FFF3FFF3FFF3F19
S1130BE0FF3FFF3FFF3FFF3FFF3FFF3FFF3FFF3F11
S1130BF0FF3FFF3FFF3FFF3F0525062607270C2C3D
S1130C000D2D0E2E0F2F14341535163617371C3CA8
S1130C101D3D1E3E1F3FA42403220100C33F360C8A
S1130C202E0C260C00040000000000000000FF3F12
S1130C30FF3FFF3FFF3FBD370130BC2700200222AA
S1130C400100C33F5C0C540C4C0C00040000000079
S1130C5000000000FF3FFF3FFF3FFF3F3D30813773
S1130C6080273C20FD210100BF809A0C860C720C69
S1130C70000A000000000000000000000000000066
S1130C80000000000000BF80FFFFFFFFFFFFFFFF29
S1130C90FFFFFFFFFFFFFFFFFFFF1080188020C052
S1130CA021A0229023882484258226816780FE1C2B
S1130CB000005F3FFC0CDC0CBC0C001000000000CA
S1130CC00000000000000000000000000000000020
S1130CD0000000000000000000000000FF3FFF3F94
S1130CE0FF3FFF3FFF3FFF3FFF3FFF3FFF3FFF3F10
S1130CF0FF3FFF3FFF3FFF3FFF3FFF3FA020A121FA
S1130D00A222A323A828A929AA2AAB2BB030B13147
S1130D10B232B333B838B939BA3A1B3BFD1C0000C0
S1130D205B3B3A0D320D2A0D000400000000000068
S1130D300000FB3BFB3BFB3BFB3BBB3B123209296B
S1130D400020FC1C00005F3F740D620D500D000973
S1130D50000000000000000000000000000000008F
S1130D600000FF3FFF3FFF3FFF3FFF3FFF3FFF3FCD
S1130D70FF3FFF3FA020A121A222A323A828A92945
S1130D80AA2AAB2B1F3FD3210100FF83B00DA20D74
S1130D90940D00070002000200020002000200029B
S1130DA00002FFFFFFFFFFFFFFFFFFFFFFFFFFFF4B
S1130DB00084018401850585018507C503A5D22129
S1130DC00100FF87280EFA0DCC0D00170004000463
S1130DD000040004000400040004000400040004EF
S1130DE000040004000400040004000400040004DF
S1130DF000040004000400040004FFFFFFFFFFFFE1
S1130E00FFFFFFFFFFFFFFFFFFFFFFFFFFFFFFFFEE
S1130E10FFFFFFFFFFFFFFFFFFFFFFFFFFFFFFFFDE
S1130E20FFFFFFFFFFFFFFFF00807E8301807FFB4A
S1130E303DFB43833FC143E143F143F901B97D994C
S1130E4041BA7FFA01F23FE201E07FE07FCA7F9A74
S1130E507FBA7FFA7E83D121010099E7E00EA20ECA
S1130E60640E001F000000000000080008000800D5
S1130E70080008000800080008000800080008002E
S1130E800800080008000000000000000000000046
S1130E9010001000100010001000100010001000CE
S1130EA00020FFFFFFFFFFFFFFFFFFFFFFFFFFFF2C
S1130EB0FFFFFFFFFFFFFFFFFFFFFFFFFFFFFFFF3E
S1130EC0FFFFFFFFFFFFFFFFFFFFFFFFFFFFFFFF2E
S1130ED0FFFFFFFFFFFFFFFFFFFFFFFFFFFFFFFF1E
S1130EE05B993CDA7FDB73DF75DF71DF57DF53DF3C
S1130EF055DF51DF37DF33DF35DF31DF17DF13DF56
S1130F0015DF19DF11CF7FDF6FD719DF0DDF0BDF9F
S1130F100FDF29DF2DDF2BDF2FDF49DF19DFD021A2
S1130F20010099FF480F3A0F2C0F00070000000042
S1130F3000000000000000000000FFFFFFFFFFFFB3
S1130F40FFFFFFFFFFFFFFFF18BD189D5899589D35
S1130F50489D5C9D4C95CF21010099E7880F760F41
S1130F60640F000900200020002000200020002041
S1130F70002000200020FFFFFFFFFFFFFFFFFFFF17
S1130F80FFFFFFFFFFFFFFFF00900894049402940B
S1130F9006942094169412941494CE21010099E797
S1130FA0CC0FBA0FA80F0009002000200020002059
S1130FB000200020002000200020FFFFFFFFFFFF93
S1130FC0FFFFFFFFFFFFFFFFFFFFFFFF00900894FD
S1130FD00494029406942094169412941494C621B2
S1130FE00100BFF0F40FF00FEC0F0002000000004E
S1130FF0FFFFFFFF739B15A2FA1C00005F3F2A103E
S11310001810061000090000000000000000000095
S11310100000000000000000FF3FFF3FFF3FFF3FD4
S1131020FF3FFF3FFF3FFF3FFF3FA020A121A22240
S1131030A323A828A929AA2AAB2B1F3FBF2101005B
S113104099995A1052104A1000040001000100013D
S11310500001FFFFFFFFFFFFFFFF24A43CBC5BDA9E
S113106025A4BE210100ADB588107C1070100006C7
S1131070000100010001000100010001FFFFFFFF6A
S1131080FFFFFFFFFFFFFFFF00802CB4679819E606
S11310907FFE2CB4BD210100C3FFDE10C010A210DE
S11310A0000F40004000400040004000400040006D
S11310B0400040004000400040004000400040002C
S11310C0FFFFFFFFFFFFFFFFFFFFFFFFFFFFFFFF2C
S11310D0FFFFFFFFFFFFFFFFFFFFFFFFFFFF00C05A
S11310E000FF289428A928AA28AB14A814951496BC
S11310F014972894308C00FF0CB000FFF91C0000FA
S1131100553512110E110A11000200000000FF3FB4
S1131110FF3FBF3F0020B6210100FFEF54113C11F7
S11311202411000C400040004000400040004000FA
S1131130400040004000400040004000FFFFFFFF2F
S1131140FFFFFFFFFFFFFFFFFFFFFFFFFFFFFFFFAB
S1131150FFFFFFFF00801FEE00811FEF00811FBF14
S113116001D11FFF00D11EFF21D13EBFB5210100D7
S1131170BFFE921186117A110006020002000200DD
S1131180020002000200FFFFFFFFFFFFFFFFFFFF5F
S1131190FFFF408048804980518221834182B421ED
S11311A00100C321CC11BC11AC11000880008000E7
S11311B0800080008000800080008000FF3FFF3FAF
S11311C0FF3FFF3FFF3FFF3FFF3FFF3F0020032064
S11311D0002107210F21182132212123B3210100ED
S11311E0FF832E120C12EA1100110000000002000D
S11311F002000200020002000200020002000200DB
S1131200020002000000000000000000FF83FF83D2
S1131210FFFFFFFFFFFFFFFFFFFFFFFFFFFFFFFFDA
S1131220FFFFFFFFFFFFFFFFFFFFFFFFFFFF028046
S1131230018000800483718E41AF419F41FF41834F
S113124041A3419341B3418B43AB42AB40AB428397
S1131250B2210100FF83A61282125E120012000066
S1131260020002000200020002000200020002006A
S11312700200020002000200000000000000000062
S11312800200FF83FFFFFFFFFFFFFFFFFFFFFFFFE2
S1131290FFFFFFFFFFFFFFFFFFFFFFFFFFFFFFFF5A
S11312A0FFFFFFFFFF8302800080008004834181F1
S11312B0018300831DB8718741E7418341A34193B2
S11312C043B342B340B342834183B1210100FF835E
S11312D01813F812D81200100000000002000200D7
S11312E002000200020002000200020002000200EA
S11312F00000000000000200FFFFFFFFFFFFFFFFF0
S1131300FFFFFFFFFFFFFFFFFFFFFFFFFFFFFFFFE9
S1131310FFFFFFFFFFFFFF830280428341810183C0
S113132001810180718E41AF419F41FF418341A3FF
S11313304393419340834183B0210100FF837E1393
S113134062134613000E02000200020002000200B3
S1131350020002000200020002000200000000007D
S11313600000FFFFFFFFFFFFFFFFFFFFFFFFFFFF87
S1131370FFFFFFFFFFFFFFFFFFFFFFFFFFFF0080F7
S113138040835DBA41875DE7418341A3419341B303
S1131390418B41AB439B419B4083F81C0000553576
S11313A0B013AC13A813000200000000FF3FFF3F7E
S11313B0AA2A1535AE210100B7F6EA13D613C213D3
S11313C0000A00000000000000000000000000000F
S11313D0000000000000FFFFFFFFFFFFFFFFFFFF13
S11313E0FFFFFFFFFFFFFFFFFFFF5ADB6DED4889A3
S11313F06C9B12A436B649895BAD259237B6AD21F4
S11314000100B7F6341420140C14000A0000000084
S113141000000000000000000000000000000000C8
S1131420FFFFFFFFFFFFFFFFFFFFFFFFFFFFFFFFC8
S1131430FFFFFFFF7FBF25D2008024925AAD7EBFFD
S1131440018013A46D9B12E4A9210100BFFE9E1428
S11314507A1456140012000000000000000000007E
S11314600000000000000000000000000000000078
S113147000000000000000000000FFFFFFFFFFFF6E
S1131480FFFFFFFFFFFFFFFFFFFFFFFFFFFFFFFF68
S1131490FFFFFFFFFFFFFFFFFFFFFFFFFFFF29EA43
S11314A017D414CA68D428EA56F416CA6AD42AEAA5
S11314B056F42994158B29AA15B52B92178D2BAAAE
S11314C017B5A7210100CFFF1815F414D01400128A
S11314D00000000000000000000000000000000008
S11314E000000000000000000000000000000000F8
S11314F000000000FFFFFFFFFFFFFFFFFFFFFFFFF4
S1131500FFFFFFFFFFFFFFFFFFFFFFFFFFFFFFFFE7
S1131510FFFFFFFFFFFFFFFF6AD565AA27F81880CA
S11315202BFC14842DFA12822EFE11862FB910C1C1
S11315302FDD10A52FEB10932FF7108FF71C000051
S11315405F376A155A154A150008000000000000AC
S113155000000000000000000000FF3FFF3FFF3FCD
S1131560FF3FFF3FFF3FFF3FFF3F002004310922C1
S11315700D33122416351B26BF3FA42101009F9E64
S1131580B0159C158815000A00000000000000003A
S1131590000000000000000000000000FFFFFFFF4B
S11315A0FFFFFFFFFFFFFFFFFFFFFFFFFFFFFFFF47
S11315B07AF56FBF05D40ACB4DD44ECB2FCA2FD5A5
S11315C06FDA6FDDA32101009FDEFA15E615D2154F
S11315D0000A0000000000000000000000000000FD
S11315E0000000000000FFFFFFFFFFFFFFFFFFFF01
S11315F0FFFFFFFFFFFFFFFFFFFF7FBF7F9C6F9F8A
S113160017BE1BBF5DBE5EBF3FAE3FB77FBAA12111
S1131610010080F85C163C161C1600100000000047
S113162000000000000000000000000000000000B6
S1131630000000000000000000000000FFFFFFFFAA
S1131640FFFFFFFFFFFFFFFFFFFFFFFFFFFFFFFFA6
S1131650FFFFFFFFFFFFFFFFFFFFFFFF7E877DC749
S11316607BA777E76F975FD73FB77FF67F8D7FCBF9
S11316707FAF7FEF7F9F7FDF7FBF7FFF9C210100D4
S11316805F3FAE169C168A16000900000000000099
S1131690000000000000000000000000FF3FFF3FCA
S11316A0FF3FFF3FFF3FFF3FFF3FFF3FFF3FA020C4
S11316B0A121A222A323A828A929AA2AAB2B1F3F30
S11316C0F61C00005535D616D216CE1600020000C0
S11316D00000FF3FFF3FAA2A15359B21010087F038
S11316E00017F416E81600060000000000000000D1
S11316F000000000FFFFFFFFFFFFFFFFFFFFFFFFF2
S11317007DEF7BDF70876AAB5C9D3EBE9A21010052
S1131710BF804A1732171A17000C0000000000009F
S113172000000000000000000000000000000000B5
S11317300000FFFFFFFFFFFFFFFFFFFFFFFFFFFFB3
S1131740FFFFFFFFFFFFFFFFFFFF7FFF58FF5FFF6C
S113175040FF60BF61DF62EF63F764FB65FD66FE17
S113176027FF99210100BF80A01788177017000C6C
S11317700000000000000000000000000000000065
S11317800000000000000000FFFFFFFFFFFFFFFF5D
S1131790FFFFFFFFFFFFFFFFFFFFFFFFFFFFFFFF55
S11317A07FFF50FF5FFF40FF60BF61DF62EF63F7C1
S11317B064FB65FD66FE27FF982101005B3BD6179D
S11317C0CE17C61700040000000000000000FF3F11
S11317D0FF3FFF3FFF3F0020AD2DB6361B3B952159
S11317E00100FFFE24180818EC17000E000000008A
S11317F000000000000000000000000000000000E5
S11318000000000000000000FFFFFFFFFFFFFFFFDC
S1131810FFFFFFFFFFFFFFFFFFFFFFFFFFFFFFFFD4
S1131820FFFFFFFF008101810381008F0F811F8172
S113183000FF7F817F837F877F8F7F9F7FBF7FFEB6
S1131840942101005B3B5E1856184E1800040000FA
S1131850000000000000FF3FFF3FFF3FFF3FA424C4
S1131860AD2DB6361B3BF51C00005F3F981886185B
S113187074180009000000000000000000000000CF
S1131880000000000000FF3FFF3FFF3FFF3FFF3F1E
S1131890FF3FFF3FFF3FFF3FA020A121A222A32340
S11318A0A828A929AA2AAB2B1F3F8E2101005B3B44
S11318B0C818C018B8180004000000000000000098
S11318C0FF3FFF3FFF3FFF3FBF3F0932A424B62D38
S11318D08D2101005B3BFE18EE18DE1800080000A5
S11318E00000000000000000000000000000FF3FB6
S11318F0FF3FFF3FFF3FFF3FFF3FFF3FFF3FB62D4F
S11319000020AD36BF3FBD3EAF37AF3EBD378B2164
S113191001008787341928191C19000600000000EB
S11319200000000000000000FFFFFFFFFFFFFFFFBB
S1131930FFFFFFFF48C84BCB4ACA4FCF48C84DCD25
S1131940F41C00005F376E195E194E190008000080
S11319500000000000000000000000000000FF3F45
S1131960FF3FFF3FFF3FFF3FFF3FFF3FFF3FA028F9
S1131970A439A92AAD3BB22CB63DBB2E1F37812119
S113198001004F3EA41998198C190006011001108A
S11319900110011001100110FF3FFF3FFF3FFF3F07
S11319A0FF3FFF3F1021162D18231C21AA2A1E2FAA
S11319B0802101008FFEDE19CE19BE190008011026
S11319C00110011001100110011001100110FFFF9E
S11319D0FFFFFFFFFFFFFFFFFFFFFFFFFFFF10E120
S11319E016ED68826E8268E21CE76AEA1EEFF31C59
S11319F000005F371C1A0C1AFC19000800000000D4
S1131A00000000000000000000000000FF3FFF3F56
S1131A10FF3FFF3FFF3FFF3FFF3FFF3F00201034EA
S1131A200A2205210F231A361535BF3F7D210100F7
S1131A309FFC5A1A4A1A3A1A0008080808080808A3
S1131A4008080808080808080808FFFFFFFFFFFF48
S1131A50FFFFFFFFFFFFFFFFFFFF508556B521C2C9
S1131A6027F651C533E635D637F67B210100C93F49
S1131A70901A841A781A000600090009000900095E
S1131A8000090009FF3FFF3FFF3FFF3FFF3FFF3FCC
S1131A902220AB24223295322A369D36F21C0000D5
S1131AA05F37CA1ABA1AAA1A000800000000000018
S1131AB000000000000000000000FF3FFF3FFF3F68
S1131AC0FF3FFF3FFF3FFF3FFF3FA028A439A92A64
S1131AD0AD3BB22CB63DBB2E1F37F11C00005B3B67
S1131AE0F81AF01AE81A00040000000000000000D0
S1131AF0FF3FFF3FFF3FFF3FBF3F09291232002056
S1131B00F01C00005B3B1E1B161B0E1B0004000098
S1131B10000000000000FF3FFF3FFF3FFF3F0020A9
S1131B2012320929BF3FEF1C000055353C1B381BFE
S1131B30341B000200000000FF3FFF3FBF3F0020B6
S1131B40EE1C00005535561B521B4E1B00020000B4
S1131B500000FF3FFF3FAA2A1535ED1C0000553554
S1131B60701B6C1B681B000200000000FF3FFF3F5E
S1131B70AA2A1535EC1C000055358A1B861B821BCE
S1131B80000200000000FF3FFF3FAA2A1535EB1CAE
S1131B9000005B3BAC1BA41B9C1B0004000000006A
S1131BA000000000FF3FFF3FFF3FFF3FA424AD2D97
S1131BB0B6361B3BEA1C0000F62DD21BCA1BC21B07
S1131BC000040000000000000000FF3FFF3FFF3F53
S1131BD0FF3F093292242429B62DE91C0000F62D7A
S1131BE0F81BF01BE81B00040000000000000000CC
S1131BF0FF3FFF3FFF3FFF3F09329B362D3BB62D92
S1131C00E81C00005B3B1E1C161C0E1C000400009C
S1131C10000000000000FF3FFF3FFF3FFF3FA42400
S1131C20AD2DB6361B3BDC110000EAEA441C3C1C1B
S1131C30341C00040000000000000000FFFFFFFF50
S1131C40FFFFFFFF159525B54ADA6AEABF110000C8
S1131C50FF806A1C621C5A1C000400000000000083
S1131C600000FFFFFFFFFFFFFFFF09FF118607FDD5
S1131C700D80B41100009F9EA81C941C801C000AB7
S1131C800000000000000000000000000000000050
S1131C9000000000FFFFFFFFFFFFFFFFFFFFFFFF4C
S1131CA0FFFFFFFFFFFFFFFF008010C078A174A0BB
S1131CB032A131A050B150A810A510A2B11100005A
S1131CC0FFFCDA1CD21CCA1C000400000000000047
S1131CD00000FFFFFFFFFFFFFFFF0BEB2BE87597F3
S1131CE054D4A8110000C3C31C1D061DF01C000B16
S1131CF001010101010101010101010101010101D0
S1131D00010101010101C3C3FFFFFFFFFFFFFFFF4B
S1131D10FFFFFFFFFFFFFFFFFFFFFFFF42C206863B
S1131D200A8A0E8E129216961A9A1E9E22A226A62F
S1131D302AAAA7110000FFE1581D4C1D401D0006F2
S1131D40000000000000000000000000FFFFFFFF93
S1131D50FFFFFFFFFFFFFFFF7EC04CEA1AB735F11C
S1131D6049A967AFA6110000C3C38E1D801D721D53
S1131D70000701010101010101010101010101014A
S1131D80C3C3C3C3FFFFFFFFFFFFFFFFC3C342C2C1
S1131D90008042C20080068608880282A0110000EA
S1131DA0FFDFF21DCE1DAA1D00120000000000007E
S1131DB0000000000000000000000000000000001F
S1131DC00000000000000000000000000000FFFF11
S1131DD0FFFFFFFFFFFFFFFFFFFFFFFFFFFFFFFF0F
S1131DE0FFFFFFFFFFFFFFFFFFFFFFFFFFFFFFFFFF
S1131DF0FFFF7E8101A07D8502A47B8904A8778DE5
S1131E0008AC6F9110B05F9520E43F9940B87F9C77
S1131E1000BD009F7FFC9F110000FF80381E2E1E16
S1131E20241E000500000000000000000000FFFF69
S1131E30FFFFFFFFFFFFFFFF08FF4C8C4EF60CDF98
S1131E4004809E1100009DDB641E5A1E501E000576
S1131E5000400040004000400040FFFFFFFFFFFF44
S1131E60FFFFFFFF69B240A660A640A460A09711DF
S1131E700000ABEA8C1E841E7C1E000400000000DF
S1131E8000000000FFFFFFFFFFFFFFFF5DB3778D42
S1131E9018DF66F4021000009FFCCE1EB81EA21EBE
S1131EA0000B000000000000000000000000000023
S1131EB00000000000000000FFFFFFFF9FFC9FFCEC
S1131EC0FFFFFFFFFFFFFFFFFFFFFFFFFFFF42A139
S1131ED056B51EBC1EBC3EBE5C9D56B55EBD2EBA3C
S1131EE04C995EBDFE0F000085C02A1F0E1FF21E16
S1131EF0000E0000040004000400040004000400B8
S1131F00040004000400040004000000000085C074
S1131F108FC09FC0BFC0FFC0FFE0FFF0FFF8FFFC11
S1131F20FFFDFFFDFFFDFFFDFFFD01C00BC011C064
S1131F302BC051C02BE051D02BE851D42BE851D504
S1131F4052D42BE879BCFD0F0000F339641F5C1FE9
S1131F50541F00040000000000000000FF3FFF3F8A
S1131F60FF3FFF3F0C269D2E2E37B339F20F0000A2
S1131F70FE2FA61F901F7A1F000B00000000000018
S1131F80000000000000000000000000000000004D
S1131F90FF3FFF3FFF3FFF3FFF3FFF3FFF3FFF3F4D
S1131FA0FF3FFF3FFF3F00200221042206230824B5
S1131FB00A250C260E27902E12291F3FF10F000030
S1131FC0F339DA1FD21FCA1F00040000000000000A
S1131FD00000FF3FFF3FFF3FFF3FB823912822311E
S1131FE0073CEE0F0000FF2F18200420F01F000A0A
S1131FF000000000000000000000000000000000DD
S113200000000000FF3FFF3FFF3FFF3FFF3FFF3F58
S1132010FF3FFF3FFF3FFF3F1F2F0A25142A182CC5
S11320200623002F00301F27162F1C2EED0F000053
S1132030F3394A2042203A20000400000000000046
S11320400000FF3FFF3FFF3FFF3F0C269128223156
S1132050BF3FEC0F0000C3FF6C206620602000032C
S1132060400040004000FFFFFFFFFFFF3CBC14A8FE
S11320702894EB0F0000DF3CA02090208020000873
S1132080000000000000000000000000000000004C
S1132090FF3FFF3FFF3FFF3FFF3FFF3FFF3FFF3F4C
S11320A00020AC27292BAD2F3333B6373B3BBF275A
S11320B0E90F0000DF3CDE20CE20BE200008000037
S11320C00000000000000000000000000000FF3FCE
S11320D0FF3FFF3FFF3FFF3FFF3FFF3FFF3F00202A
S11320E0842409288D2C133096341338BF3FE80F0D
S11320F00000FE2F28211221FC20000B000000000C
S113210000000000000000000000000000000000CB
S11321100000FF3FFF3FFF3FFF3FFF3FFF3FFF3F09
S1132120FF3FFF3FFF3FFF3F0020033105320733EE
S113213009340B350D360F37113813391F3FE70FAC
S11321400000F3395C2154214C21000400000000FC
S113215000000000FF3FFF3FFF3FFF3FB8239D2EDD
S11321602E37073CE60F0000F33982217A217221D1
S113217000040000000000000000FF3FFF3FFF3F9D
S1132180FF3F00209D2E2E37B339E50F0000553553
S1132190A0219C219821000200000000FF3FFF3F86
S11321A0AA2A1535E40F0000FF2FDA21C621B22137
S11321B0000A000000000000000000000000000011
S11321C0000000000000FF3FFF3FFF3FFF3FFF3FD5
S11321D0FF3FFF3FFF3FFF3FFF3F1E2F0A35143AEB
S11321E0183C0633003F00301E37163F1C3EE20FFA
S11321F00000F93C0C220422FC2100040000000031
S113220000000000FF3FFF3FFF3FFF3F06238F27F3
S11322103038BF3FD50F0000F79F36222C222222F0
S1132220000500000000000000000000F79FFFFF11
S1132230FFFFFFFFFFFF12881AE80EE919EA1AF4FC
S1132240D30F0000FBFF922270224E2200110000E7
S1132250000000000000000000000000000000007A
S1132260000000000000000000000000000000006A
S1132270FFFFFFFFFFFFFFFFFFFFFFFFFFFFFFFF6A
S1132280FFFFFFFFFFFFFFFFFFFFFFFFFFFFFFFF5A
S1132290FFFF1BE81BDC1BBA1BF61AF90BFD19FB2D
S11322A013FF049004A404C2049E058114850683CC
S11322B00C873FE8D10F0000D5B5CA22C622C2223E
S11322C0000200000000FFFFFFFF4DB633A9D00F4E
S11322D00000FEFFEC22E422DC22000400000000E7
S11322E000000000FFFFFFFFFFFFFFFF03801694C5
S11322F017950281CC0F0000FCEC0E230823022367
S11323000003000000000000FDFFFDFFFDFF39BBDE
S11323107DFF54C4CB0F0000FCFC32232A2322236C
S113232000040000000000000000FFFFFFFFFFFFAB
S1132330FFFF54C43BAB13837FFFCA0F0000F8B008
S113234054234E2348230003000000000000FFFF35
S1132350FFFFFFFF4BB65BB634C9C90F0000643200
S113236070236C236823000200000000FF3FFF3F3E
S1132370AD361229C80F00008086BE23A023822315
S1132380000F00020002000200020002000200022C
S11323900002000200020002000200020002000229
S11323A08086FFFFFFFFFFFFFFFFFFFFFFFFFFFF31
S11323B0FFFFFFFFFFFFFFFFFFFFFFFFFFFF0084A3
S11323C00081408040812080208160806081108075
S11323D0108150805081308030817080BF0F0000A8
S11323E083C2FA23F223EA2300040200020002005B
S11323F00200E3C2E3C2E3C2E3C220C04080218200
S11324004082BE0F0000F339202418241024000455
S11324100000000000000000FF3FFF3FFF3FFF3FC0
S11324209D2E2E370020B339BD0F00009DDB8E2476
S11324306224362400160040004000400040004062
S11324400040004000400040004000400040004088
S11324500040004000400040004000400040004078
S11324600140FFFFFFFFFFFFFFFFFFFFFFFFFFFF35
S1132470FFFFFFFFFFFFFFFFFFFFFFFFFFFFFFFF68
S1132480FFFFFFFFFFFFFFFFFFFFFFFFFFFF418293
S113249060824086608640A260A240A660A6428216
S11324A02280428060A440A460A040A06084408454
S11324B0608050800080628040BEBC0F0000809E1F
S11324C0F024DC24C824000A0000000000000000FE
S11324D0000000000000000000000000FFFFFFFFFC
S11324E0FFFFFFFFFFFFFFFFFFFFFFFFFFFFFFFFF8
S11324F0048000A2048000D20188208A4098089AAF
S113250000851086BB0F0000FC9F3A252625122566
S1132510000A00000000040004000400040000108D
S1132520001000100010FFFFFFFFFFFFFFFFFFFF81
S1132530FFFFFFFFFFFFFFFFFFFF51C52AAA21A0F6
S113254012A031A032A002C202A402C602A6B90F90
S11325500000DF3C7C256C255C25000800000000A1
S1132560000000000000000000000000FF3FFF3FEB
S1132570FF3FFF3FFF3FFF3FFF3FFF3F20238424F8
S113258009288D2C123096341B389F3CB80F00005C
S11325904320D225B6259A25000E01000100010032
S11325A0010001000100010001000100010001001F
S11325B001000100010043207F2D7F2D7F2D7F2D01
S11325C07F2D7F2D7F2D7F2D7F2D7F2D7F2D7F2DA7
S11325D07F2D022000280024002C00210029002542
S11325E0002D202020282024202C20210220B70F79
S11325F00000DF3C1C260C26FC250008000000001F
S1132600000000000000000000000000FF3FFF3F4A
S1132610FF3FFF3FFF3FFF3FFF3FFF3F2023A42734
S1132620292BAD2F3233B6373B3B9F3CB60F00000E
S113263080F062264E263A26000A00200020002060
S11326400020002000200020002000200020DFFEC9
S1132650DFFEDFFEDFFEDFFEDFFEDFFEDFFEDFFE8E
S1132660DFFE02C801880488408800840880108046
S1132670008202880298B40F00008086CC26A82627
S11326808426001200000000000200020002000282
S11326900002000200020002000200020002000226
S11326A00002000200020002FFFFFFFFFFFFFFFF26
S11326B0FFFFFFFFFFFFFFFFFFFFFFFFFFFFFFFF26
S11326C0FFFFFFFFFFFFFFFFFFFFFFFF008400800E
S11326D000810080008100800081008000814080B2
S11326E04081408040814080408140804081108012
S11326F0019D000099E736271A27FE26000E0000E8
S113270000000000000000000000000000000000C5
S11327100000000000000000000099FFFFFFFFFF21
S1132720FFFFFFFFFFFFFFFFFFFFFFFFFFFFFFFFB5
S1132730FFFFFFFFFFFF18FF7CDB6C9C7A9C6A9C09
S11327407E9C6E94189C089C1C9C149C189C108C59
S11327507E9C009D000099E798277C276027000E47
S11327600000000000000000000000000000000065
S113277000000000000000000000000099FFFFFFBF
S1132780FFFFFFFFFFFFFFFFFFFFFFFFFFFFFFFF55
S1132790FFFFFFFFFFFFFFFF19FE3FDA2E9C589C4F
S11327A0489C5C9C4C94189C089C1C9C149C189CF5
S11327B0108C5C9CB30F0000FFE1DA27CE27C22700
S11327C00006000000000000000000000000FFFF01
S11327D0FFFFFFFFFFFFFFFFFFFF7FFF7FFE7FC0C5
S11327E000F1558F55BEB20F0000C7EB1C28082816
S11327F0F427000A002000200020002000200020F0
S11328000020002000200020FFFFFFFFFFFFFFFF4C
S1132810FFFFFFFFFFFFFFFFFFFFFFFF39DD299DE4
S1132820219D019D01990089388B3884399429941C
S1132830EF9C000099994E2846283E280004000188
S1132840000100010001FFFFFFFFFFFFFFFF5BDA54
S113285025A424A43CBCEE9C0000ADB574286C28CF
S1132860642800040001000100010001FFFFFFFFD4
S1132870FFFFFFFF7FFE018000802CB4B10F00003A
S113288080F0BA28A2288A28000C0020002000200A
S11328900020002000200020002000200020002034
S11328A00020FFFFFFFFFFFFFFFFFFFFFFFFFFFF12
S11328B0FFFFFFFFFFFFFFFFFFFF04C80288088838
S11328C04088008A01801080208000810084048870
S11328D00498E29C0000FF831429FA28E028000DE4
S11328E002000200000002000200020002000200D6
S11328F000000000000000000200FF83FFFFFFFF54
S1132900FFFFFFFFFFFFFFFFFFFFFFFFFFFFFFFFD3
S1132910FFFFFF831C811DB841BB418741E7418311
S113292041A3419343B342B340B342834183E19C07
S11329300000FF836C2954293C29000C020002008A
S11329400200000002000200020002000000000079
S113295000000200FF83FFFFFFFFFFFFFFFFFFFFF9
S1132960FFFFFFFFFFFFFFFFFFFFFF83348134837F
S113297035AC41AF419F41FF418341A34393419310
S113298040834183B00F0000F93CA2299A2992297F
S113299000040000000000000000FF3FFF3FFF3F75
S11329A0FF3F06238F273038BF3FAF0F0000E1E120
S11329B0CC29C229B8290005010101010101010145
S11329C00101FFFFFFFFFFFFFFFFFFFF20A050D02B
S11329D058D85CDC0E8EAD0F0000FC27F429EC29DE
S11329E0E42900040404040404040404FF3FFF3F36
S11329F0FF3FFF3F0A2AA13002281131AC0F00002B
S1132A005E2F1A2A122A0A2A00040000000000007D
S1132A1000005F3F5F3F5F3F5F3F01300B35153A7A
S1132A201E2FAB0F0000F339402A382A302A000445
S1132A300000000000000000FF3FFF3FFF3FFF3F9A
S1132A40B4259D2E2E370B3AAA9C000055355E2ADC
S1132A505A2A562A000200000000FF3FFF3FAA2A1C
S1132A601535AA0F0000D5A5782A742A702A000209
S1132A7000000000FFEFFFEF7FEF0180A90F0000CF
S1132A80D5A5922A8E2A8A2A000200000000FFEFB0
S1132A90FFEF2BCA55A5A20F0000FE2FCC2AB82A9F
S1132AA0A42A000A0000000000000000000000004A
S1132AB00000000000000000FF3FFF3FFF3FFF3F1A
S1132AC0FF3FFF3FFF3FFF3FFF3FFF3F102310212A
S1132AD0102F182C062F04221E2F01300A25142A29
S1132AE0A10F0000F339FE2AF62AEE2A00040000A2
S1132AF0000000000000FF3FFF3FFF3FFF3F0C26A8
S1132B0022319128B339A00F0000DF3C382B262B4B
S1132B10142B000900000000000000000000000069
S1132B20000000000000FF3FFF3FFF3FFF3FFF3F6B
S1132B30FF3FFF3FFF3FFF3FA0222023102508292E
S1132B40182D043114350C391C3D11241FBECFE55A
S1132B50D8E0DEBFCDBF12E0A0E6B0E0EEE0F2E3E5
S1132B6002C005900D92A030B107D9F722E0A0E091
S1132B70B2E001C01D92A83DB207E1F70E947917A7
S1132B800C9405190C94000081E0809300021092CB
S1132B90010282B38F7782BB08958ABB97BB0895E5
S1132BA08BBB98BB08952BB3282B2BBB28B3292BA5
S1132BB028BB22E12A95F1F700C02BB3809582232C
S1132BC08BBB88B39095982398BB089529B386B39B
S1132BD090E0982F8827822B90938D0280938C020B
S1132BE00895CF92DF92EF92FF921F93CF93DF93DA
S1132BF07C01FC01848195810E94CD1510E029C0DF
S1132C00C12FD0E0CC0FDD1FCE01805F9D4F6C0142
S1132C10FC01808191810E94D015FE01E25BFD4F91
S1132C20808191810E94D3150E94E615C257DD4F21
S1132C302881398182239323F601208131818217EF
S1132C40930731F080E090E00E94CD1580E006C04B
S1132C501F5FF7018585181798F281E0DF91CF9106
S1132C601F91FF90EF90DF90CF900895CF92DF9265
S1132C70EF92FF920F931F93CF93DF93EA016115B5
S1132C80710581059105D1F480E38883198239C0E7
S1132C908E010C0D1D1D2AE030E040E050E00E9442
S1132CA0DA18605DF8016083622F732F842F952FEB
S1132CB0FFEFCF1ADF0AEF0AFF0A03C0C12CD12CA1
S1132CC07601611571058105910511F7FE01EC0D81
S1132CD0FD1D108221E0C21AD10880E090E00EC0F0
S1132CE0DE01A80FB91F2C91FE01EC0DFD1D3081F2
S1132CF03C9320830196E1E0CE1AD1088C159D0502
S1132D007CF3DF91CF911F910F91FF90EF90DF90B3
S1132D10CF90089580E090E008C0FC01EE0FFF1F03
S1132D20E05FFD4F11821082019620916400309182
S1132D3065008217930788F3089580E090E008C047
S1132D40FC01EE0FFF1FE257FD4F11821082019626
S1132D5020916400309165008217930788F30895E9
S1132D6080E090E008C0FC01EE0FFF1FE25BFD4F26
S1132D7011821082019620916400309165008217BF
S1132D80930788F3089595B39F7E95BB95B3907F81
S1132D90282F22952F70922B95BB95B3906295BBEB
S1132DA094E09A95F1F795B39F7D95BBE8E2F2E044
S1132DB03197F1F700C0000095B3907F8F70892B95
S1132DC085BB85B3806285BBF4E0FA95F1F785B3E2
S1132DD08F7D85BB87E08A95F1F700C0089581E077
S1132DE00E94C31689E995E10197F1F700C008959F
S1132DF095B3906195BB95B3907F282F22952F7042
S1132E00922B95BB95B3906295BB94E09A95F1F79C
S1132E1095B39F7D95BBE8E2F2E03197F1F700C0EE
S1132E20000095B3907F8F70892B85BB85B380623A
S1132E3085BBF4E0FA95F1F785B38F7D85BB87E018
S1132E408A95F1F700C00895CF93DF93EC0109C090
S1132E500E94F81621968FEF9BE60197F1F700C0C8
S1132E60000088818111F4CFDF91CF9108958130E2
S1132E7011F480E001C080E4860F80680E94C316CC
S1132E8008958FEF84BB15BA8FEF97ED0197F1F793
S1132E9000C0000083E30E94C31682E30E94C316AD
S1132EA088E20E94C3168CE00E94C31686E00E944A
S1132EB0C3160E94EF1663E081E00E9437178FEC7F
S1132EC091E00E94241761E082E00E94371789EDA7
S1132ED091E00E942417089580E690E00E9429184A
S1132EE00E94411781B3806881BB82B38F7782BB14
S1132EF008950E946C17809100028823E1F35DC05D
S1132F00E12FF0E0EE0FFF1FE959FF4F608171815F
S1132F104EE050E082E092E00E94FC18C2E0D2E071
S1132F204D856E817F8150E0440F551F80E192E012
S1132F300E94FC184D856885798550E0440F551F23
S1132F408EE892E00E94FC184D856A857B8550E0EE
S1132F50440F551F8EE492E00E94FC18CE010E949B
S1132F60F11580930102882301F1609102027091AE
S1132F70030280910402909105024CEC52E00E94FD
S1132F8036166BE082E00E9437178FEE91E00E94C4
S1132F9024176BE082E00E9437178CEC92E00E94C9
S1132FA0241782B3806882BB0EC00E948A160E94D6
S1132FB09D160E94B0161F5F01C010E0809166004C
S1132FC0181708F49DCF80910102811110C061E0AF
S1132FD082E00E94371784EE91E00E94241763E098
S1132FE082E00E94371785EF91E00E942417109227
S1132FF0000281CF9BB79F7B9BBF95B79C7F95BFFA
S113300095B7892B85BF8BB780648BBF08959BB719
S11330109F779BBF95B7937F95BF25B790E0880FA7
S1133020991F880F991F822B85BF8BB780688BBF30
S113303008959BB79F7D9BBF833021F484B7806440
S113304084BF03C084B78F7B84BF8BB780628BBF80
S11330500895CF93DF93009729F1EC0188818111C2
S11330600AC089810E94FA178A819B819093D302B6
S11330708093D20217C0813051F489810E940718CD
S11330808A819B819093D7028093D6020BC08230B1
S113309049F489810E9419188A819B819093D502F1
S11330A08093D4027894DF91CF9108951F920F9268
S11330B00FB60F9211242F933F934F935F936F9307
S11330C07F938F939F93AF93BF93EF93FF938AB7AD
S11330D08F7B8ABFE091D202F091D302309709F03E
S11330E00995FF91EF91BF91AF919F918F917F913E
S11330F06F915F914F913F912F910F900FBE0F9061
S11331001F9018951F920F920FB60F9211242F93B0
S11331103F934F935F936F937F938F939F93AF935B
S1133120BF93EF93FF938AB78F778ABFE091D6025C
S1133130F091D702309709F00995FF91EF91BF9173
S1133140AF919F918F917F916F915F914F913F913B
S11331502F910F900FBE0F901F9018951F920F92F2
S11331600FB60F9211242F933F934F935F936F9356
S11331707F938F939F93AF93BF93EF93FF938AB7FC
S11331808F7D8ABFE091D402F091D502309709F087
S11331900995FF91EF91BF91AF919F918F917F918D
S11331A06F915F914F913F912F910F900FBE0F90B0
S11331B01F901895A1E21A2EAA1BBB1BFD010DC07E
S11331C0AA1FBB1FEE1FFF1FA217B307E407F507D3
S11331D020F0A21BB30BE40BF50B661F771F881FAF
S11331E0991F1A9469F760957095809590959B0145
S11331F0AC01BD01CF010895FB01DC0102C00590C3
S11132000D9241505040D8F70895F894FFCF36
S113320E0003C4151F00B4062BE02A962A7C2A62FA
S113321E2A482A222AFC29D629AA2984292E29D2E7
S113322E287C2856283028E627B4275227F02676FD
S113323E262C26EE258C254E250425BA2428240278
S113324E24DC2374235A233A231423F422CE22B4E7
S113325E2240221422EE21A4218A2164213E21EE51
S113326E20B020722052202C20E21FBC1F6C1F465F
S113327E1FE41E941E6E1E421E161E9C1D641D32DD
S113328E1DE21CBC1C721C4C1C261C001CDA1BB43C
S113329E1B8E1B741B5A1B401B261B001BDA1A9C0D
S11332AE1A6A1A2C1AEE19B0197E1940190E19D071
S11332BE18AA1866184018DE17B81762170C17DA12
S11332CE16C0167C160E16C4157A153C15C2144873
S11332DE14FE13B4139A133813CA125012DC119E2F
S11332EE116C111611FC10941062103C10F80FDEC4
S11332FE0F9A0F560F1E0F560EBE0D860D420D1C45
S113330E0DAE0C640C3E0C180CAA0B6C0B2E0BE4BD
S113331E0A9A0A5C0A360AEC09C609880962092463
S113332E09F208C0086A0826080C08C2079C075E42
S113333E072C070007DA06B4068E0668064206EC6A
S113334E0584054005F604AC0462043C04F203A8AB
S113335E03880350031803EC02C6028E02500212B5
S113336E02B60178013A01E400BE0080005400491F
S113337E4320546573746572004943204E616D6534
S113338E203A200020202020202020202020202031
S113339E20202020004E6F7420466F756E6400004E
S9030000FC
