:100000000C9470150C9427180C9453180C947F18AA
:100010000C948D150C948D150C948D150C948D15D8
:100020000C948D150C948D150C948D150C948D15C8
:100030000C948D150C948D150C948D150C948D15B8
:100040000C948D150C948D150C948D150C948D15A8
:100050000C948D153E1D00005B3B72006A0062002F
:1000600000040000000000000000FF3FFF3FFF3FD2
:10007000FF3F00A0B6B6ADAD1BBB3D1D00008FFF1E
:10008000B800A0008800000C000000000000000084
:100090000000000000000000000000000000000060
:1000A000FFFFFFFFFFFFFFFFFFFFFFFFFFFFFFFF60
:1000B000FFFFFFFFFFFFFFFF12EA499513D548AA94
:1000C00013C948B613CE48B119CC42B325CC0AB3F4
:1000D000331D00007E18FE00EE00DE000008000068
:1000E0000000001000100010080008000800FFFFCA
:1000F000FFFFFFFFFFFFFFFFFFFFFFFFFFFF993441
:100100009124F2A4F544F6C4B0C250C570C3321DA8
:1001100000004F3E3C012C011C01000804000400BB
:10012000040004000004000400040004FF3FFF3F3B
:10013000FF3FFF3FFF3FFF3FFF3FFF3FAAA291A2CC
:10014000A9A29BA2A8AA28B1A8B228BB301D000072
:100150005F3F8E0174015A01000D0008000800087D
:10016000000800080008000800080008000800084F
:1001700000080008FF3FFF3FFF3FFF3FFF3FFF3FFB
:10018000FF3FFF3FFF3FFF3FFF3FFF3FFF3F3CB0D1
:1001900082A782B082B182B322B722B026B02EB03D
:1001A0009EB03EB79EB79AB6291D00007F3FD6018C
:1001B000C601B601000800000000000000000000B9
:1001C000000000000000FF3FFF3FFF3FFF3FFF3FF9
:1001D000FF3FFF3FFF3F80A0AAB595AA3FBF06A003
:1001E00038A000A701B8261D00005F3F14020402DA
:1001F000F401000800000000000000000000000002
:1002000000000000FF3FFF3FFF3FFF3FFF3FFF3F7A
:10021000FF3FFF3F9FBF20A083A09CA080A780B886
:1002200035B52AAA251D00007F3C4E02400232024D
:1002300000070000000000000000000000000000B7
:10024000FF3FFF3FFF3FFF3FFF3FFF3FFF3FBFBF7E
:1002500015B42AA800A007A1B8A000BE241D000064
:10026000FF307A0272026A020004000000000000FF
:100270000000FF3FFF3FFF3FFF3FBFB695A92AB9F0
:1002800000A965230100FFFEA4029A029002000566
:1002900000080008000800040004FFFEFFFFFFFF45
:1002A000FFFFFFFF55B055A255A255B355B26323CA
:1002B000010080BED802CA02BC0200070000000094
:1002C0000004000400040004000880BEFFFFFFFFDC
:1002D000FFFFFFFFFFFFFFFF0080008200A200A2E0
:1002E00000A200A207E25D230100FFFE100302034B
:1002F000F4020007000800000000000400040004ED
:100300000004FFFEFFFFFFFFFFFFFFFFFFFFFFFFF8
:1003100055B255A355B355B255B355925593221DB9
:1003200000005F3F380332032C030003000000008D
:100330000000FF3FFF3FFF3FBFBFA7B800A01F1D4A
:1003400000007F3F740360034C03000A00000000BC
:10035000000000000000000000000000000000009D
:10036000FF3FFF3FFF3FFF3FFF3FFF3FFF3FFF3F9D
:10037000FF3FFF3F0FA100BF81BB82B983B784B5A8
:1003800085B386B187AF88AD1B1D00005F3FBE03FC
:10039000AA039603000A000000000000000000000D
:1003A00000000000000000000000FF3FFF3FFF3F93
:1003B000FF3FFF3FFF3FFF3FFF3FFF3FFF3F21B3B7
:1003C000A2B2A5A186A0A8A130A398A2ADA033B0E7
:1003D0009EB01A1D00005F3FF003E803E003000435
:1003E0000000000000000000FF3FFF3FFF3FFF3F15
:1003F000A0A81FBBABA919B8171D0000F7802E04D9
:100400001A040604000A00000000000000000000BA
:1004100000000000000000000000FFFFFFFFFFFFE2
:10042000FFFFFFFFFFFFFFFFFFFFFFFFFFFF1CA01E
:100430004CF31DC44DC11E934E891F984FE33C8061
:100440006C83161D0000F780780464045004000AD1
:10045000000000000000000000000000000000009C
:1004600000000000FFFFFFFFFFFFFFFFFFFFFFFF98
:10047000FFFFFFFFFFFFFFFF1CA04CF31DC44DC19A
:100480001E934E891F984FE33C806C83121D000021
:1004900080F8C204AE049A04000A000000000000C4
:1004A0000000000000000000000000000000FFFF4E
:1004B000FFFFFFFFFFFFFFFFFFFFFFFFFFFFFFFF4C
:1004C000FFFF7E877DC77BA777E76F975FD73FB733
:1004D0007FF67F8D7FCB101D00005F3F0805F6047F
:1004E000E40400090000000000000000000000001B
:1004F000000000000000FF3FFF3FFF3FFF3FFF3FC6
:10050000FF3FFF3FFF3FFF3FA0A0A1A1A2A2A3A3E7
:10051000A8A8A9A9AAAAABAB1FBF9922010043387A
:10052000640546052805000F0000000000000000DB
:1005300000000000000000000000000000000000BB
:10054000000000000000433843384338FF3FFF3FBE
:10055000FF3FFF3FFF3FFF3FFF3FFF3FFF3FFF3FAB
:10056000FF3FFF3F00A000A000A003B801B004A41B
:1005700005B408A209B20CA60DB610A111B114A5BC
:1005800015B5962201008BE8C005A8059005000C62
:1005900000000000014001400140014001400140D5
:1005A00001400140014001408BE8FFFFFFFFFFFFDA
:1005B000FFFFFFFFFFFFFFFFFFFFFFFFFFFFFFFF4B
:1005C00002A000800490108414942082249230862B
:1005D000349640814491008092220100F339F6055F
:1005E000EE05E60500040000000000000000FF3FEB
:1005F000FF3FFF3FFF3F00A09DAE2EB7B3B90E1DDA
:1006000000005B3B1C0614060C0600040000000002
:1006100000000000FF3FFF3FFF3FFF3FA4A4ADAD40
:10062000B6B61BBB87220100C9C942063A0632068C
:1006300000040000000000000000FFFFFFFFFFFFBC
:10064000FFFF2AAA5DDD55D514940D1D00005B3B0C
:100650006806600658060004000000000000000064
:10066000FF3FFF3FFF3FFF3FA4A4ADADB6B61BBBAE
:1006700080220100ABEA8E0686067E06000400009A
:10068000000000000000FFFFFFFFFFFFFFFF7FFFF4
:10069000559554952AAA7F220100ABEAB806AE060A
:1006A000A406000500000000000000000000FFFF9D
:1006B000FFFFFFFFFFFFABEA7FFF00807EBF608090
:1006C00002827E220100ABEAE806DC06D0060006C4
:1006D000000000000000000000000000FFFFFFFF1E
:1006E000FFFFFFFFFFFFFFFF559554D57FFF7EFF04
:1006F0002AAA54957D220100ABEA220712070207BD
:1007000000080000000000000000000000000000E1
:100710000000FFFFFFFFFFFFFFFFFFFFFFFFFFFFE7
:10072000FFFF7FFF7EFF7EBF00807FBF7EFF55956E
:1007300054D5081D00005B3B5007480740070004E4
:100740000000000000000000FF3FFF3FFF3FFF3FB1
:1007500000A0B6ADADB6BFBF061D00007F3F8E073F
:100760007A076607000A0000000000000000000091
:1007700000000000000000000000FF3FFF3FFF3FBF
:10078000FF3FFF3FFF3FFF3FFF3FFF3FFF3F3FACCC
:10079000BEACBDACBBACB7ACAFAC9FACBFA8BFA44C
:1007A00081A03A220100FF87B807B407B007000212
:1007B00000040004FFFFFFFF25D125AB3622010016
:1007C0009BE4EE07DC07CA070009080008000800E0
:1007D0000800080008000800080008009BE4DFE4A7
:1007E000DFE4DFE4DFE4DFE4DFE4DFE4DFE4018033
:1007F00001840184418441840184018441844184D1
:1008000035220100673E3E0826080E08000C000055
:1008100000000000000000000000000000000000D8
:10082000000000000000FF3FFF3FFF3FFF3FFF3F92
:10083000FF3FFF3FFF3FFF3FFF3FFF3FFF3F00BE48
:1008400000A600A500A710A310A708A308A718A337
:1008500018A780A380A7342201009BEF7C087008B2
:1008600064080006000008000800080008000800EE
:100870009BEFFFFFFFFFFFFFFFFFFFFF01800184F2
:1008800001844184418401842B220100F6EDAE08ED
:10089000A20896080006000000000000000000000A
:1008A0000000FFFFFFFFFFFFFFFFFFFFFFFF0080D4
:1008B00048807FFF2DBA31E24E9D28220100CF3FB4
:1008C000E808D808C8080008000000000000000080
:1008D0000000000000000000FF3FFF3FFF3FFF3F20
:1008E000FF3FFF3FFF3FFF3F29B592AAABBF10A0DC
:1008F000ABB020BF23B398A6041D0000F62D160947
:100900000E09060900040000000000000000FF3F7F
:10091000FF3FFF3FFF3F09B292A424A9B6AD031DDC
:1009200000005F374C093C092C090008000000005A
:10093000000000000000000000000000FF3FFF3F3B
:10094000FF3FFF3FFF3FFF3FFF3FFF3FA0A804B136
:1009500009A20DB312A415B51BA61FB71A220100D8
:10096000F3397A0972096A090004000000000000E6
:100970000000FF3FFF3FFF3FFF3F0CA691A822B1C1
:10098000BFBF14220100CF3FB809A4099009000A93
:100990000000000000000000000000000000000057
:1009A00000000000FF3FFF3FFF3FFF3FFF3FFF3FD3
:1009B000FF3FFF3FFF3FFF3F30A085B20AAD8BBD39
:1009C00004AE8FBF81A007B786AB8DB9021D0000B2
:1009D0005B3BEA09E209DA090004000000000000BC
:1009E0000000FF3FFF3FFF3FFF3FA4A4ADB6B6AD01
:1009F0001BBB1322010087F0200A100A000A00081E
:100A000000000000000000000000000000000000E6
:100A1000FFFFFFFFFFFFFFFFFFFFFFFFFFFFFFFFE6
:100A200001A002B004B0089011902290439004916C
:100A300012220100B7F6660A520A3E0A000A0000B6
:100A400000000000000000000000000000000000A6
:100A50000000FFFFFFFFFFFFFFFFFFFFFFFFFFFFA4
:100A6000FFFFFFFFFFFF48C97FFF48896C9B12A46F
:100A700036B649895BAD259237B611220100B7F62B
:100A8000B00A9C0A880A000A00000000000000006A
:100A9000000000000000000000000000FFFFFFFF5A
:100AA000FFFFFFFFFFFFFFFFFFFFFFFFFFFFFFFF56
:100AB00048C97FFF008024925AAD7EBF018013A4F5
:100AC0006D9B7FBF0D220100BFFEF20AE20AD20A2F
:100AD000000800000000000000000000000000000E
:100AE0000000FFFFFFFFFFFFFFFFFFFFFFFFFFFF14
:100AF000FFFF41C17FFF0080608300A050A50280FE
:100B00004A890B220100CFFF300B200B100B00088D
:100B100000000000000000000000000000000000D5
:100B2000FFFFFFFFFFFFFFFFFFFFFFFFFFFFFFFFD5
:100B300025A815D425D215D615D125D515D325D759
:100B4000011D00005F3F8E0B6E0B4E0B001000006E
:100B50000000000000000000000000000000000095
:100B60000000000000000000000000000000FF3F47
:100B7000FF3FFF3FFF3FFF3FFF3FFF3FFF3FFF3F85
:100B8000FF3FFF3FFF3FFF3FFF3FFF3FFF3F05A509
:100B900006A607A70CAC0DAD0EAE0FAF14B415B57D
:100BA00016B617B71CBC1DBD1EBE1FBFA4A40322D2
:100BB0000100C33FCC0BC40BBC0B000400000000C1
:100BC00000000000FF3FFF3FFF3FFF3FBDB701B008
:100BD000BCA700A002220100C33FF20BEA0BE20B0C
:100BE00000040000000000000000FF3FFF3FFF3F47
:100BF000FF3F3DB081B780A73CA0FD210100BF8031
:100C0000300C1C0C080C000A000000000000000062
:100C1000000000000000000000000000BF80FFFF97
:100C2000FFFFFFFFFFFFFFFFFFFFFFFFFFFFFFFFD4
:100C30001080188020C021A022902388248425823F
:100C400026816780FE1C00005F3F920C720C520CE4
:100C50000010000000000000000000000000000084
:100C60000000000000000000000000000000000084
:100C70000000FF3FFF3FFF3FFF3FFF3FFF3FFF3FC2
:100C8000FF3FFF3FFF3FFF3FFF3FFF3FFF3FFF3F74
:100C9000FF3FA0A0A1A1A2A2A3A3A8A8A9A9AAAA14
:100CA000ABABB0B0B1B1B2B2B3B3B8B8B9B9BABA0C
:100CB0001BBBFD1C00005B3BD00CC80CC00C00042F
:100CC0000000000000000000FB3BFB3BFB3BFB3B4C
:100CD000BBBB12B209A900A0FC1C00005F3F0A0DBB
:100CE000F80CE60C00090000000000000000000005
:100CF0000000000000000000FF3FFF3FFF3FFF3FFC
:100D0000FF3FFF3FFF3FFF3FFF3FA0A0A1A1A2A2E7
:100D1000A3A3A8A8A9A9AAAAABAB1FBFD32101006E
:100D2000FF83460D380D2A0D000700020002000265
:100D30000002000200020002FFFFFFFFFFFFFFFFB3
:100D4000FFFFFFFFFFFF008401840185058501850A
:100D500007C503A5D2210100FF87BE0D900D620DCE
:100D60000017000400040004000400040004000450
:100D70000004000400040004000400040004000453
:100D80000004000400040004000400040004000443
:100D9000FFFFFFFFFFFFFFFFFFFFFFFFFFFFFFFF63
:100DA000FFFFFFFFFFFFFFFFFFFFFFFFFFFFFFFF53
:100DB000FFFFFFFFFFFFFFFFFFFFFFFFFFFF0080C1
:100DC0007E8301807FFB3DFB43833FC143E143F1D1
:100DD00043F901B97D9941BA7FFA01F23FE201E09E
:100DE0007FE07FCA7F9A7FBA7FFA7E83D12101009C
:100DF00099E7760E380EFA0D001F00000000000083
:100E000008000800080008000800080008000800A2
:100E100008000800080008000800080000000000A2
:100E20000000000000001000100010001000100072
:100E30001000100010000020FFFFFFFFFFFFFFFF6A
:100E4000FFFFFFFFFFFFFFFFFFFFFFFFFFFFFFFFB2
:100E5000FFFFFFFFFFFFFFFFFFFFFFFFFFFFFFFFA2
:100E6000FFFFFFFFFFFFFFFFFFFFFFFFFFFFFFFF92
:100E7000FFFFFFFFFFFF5B993CDA7FDB73DF75DF6E
:100E800071DF57DF53DF55DF51DF37DF33DF35DF0A
:100E900031DF17DF13DF15DF19DF11CF7FDF6FD7EA
:100EA00019DF0DDF0BDF0FDF29DF2DDF2BDF2FDF5A
:100EB00049DF19DFD021010099FFDE0ED00EC20EEE
:100EC000000700000000000000000000000000001B
:100ED000FFFFFFFFFFFFFFFFFFFFFFFFFFFF18BD4B
:100EE000189D5899589D489D5C9D4C95CF210100B7
:100EF00099E71E0F0C0FFA0E0009002000200020B9
:100F0000002000200020002000200020FFFFFFFF25
:100F1000FFFFFFFFFFFFFFFFFFFFFFFFFFFF00904F
:100F200008940494029406942094169412941494B1
:100F3000CE21010099E7620F500F3E0F00090020FB
:100F400000200020002000200020002000200020A1
:100F5000FFFFFFFFFFFFFFFFFFFFFFFFFFFFFFFFA1
:100F6000FFFF009008940494029406942094169431
:100F700012941494C6210100BFF08A0F860F820FCD
:100F8000000200000000FFFFFFFF739B15A2FA1C88
:100F900000005F3FC00FAE0F9C0F00090000000073
:100FA0000000000000000000000000000000FF3F03
:100FB000FF3FFF3FFF3FFF3FFF3FFF3FFF3FFF3F41
:100FC000A0A0A1A1A2A2A3A3A8A8A9A9AAAAABABC9
:100FD0001FBFBF2101009999F00FE80FE00F000437
:100FE0000001000100010001FFFFFFFFFFFFFFFF05
:100FF00024A43CBC5BDA25A4BE210100ADB51E10C3
:10100000121006100006000100010001000100019D
:101010000001FFFFFFFFFFFFFFFFFFFFFFFF00805B
:101020002CB4679819E67FFE2CB4BD210100C3FFE4
:10103000741056103810000F40004000400040006F
:1010400040004000400040004000400040004000A0
:10105000400040004000FFFFFFFFFFFFFFFFFFFFDA
:10106000FFFFFFFFFFFFFFFFFFFFFFFFFFFFFFFF90
:10107000FFFFFFFF00C000FF289428A928AA28AB83
:1010800014A81495149614972894308C00FF0CB073
:1010900000FFF91C00005535A810A410A010000294
:1010A00000000000FF3FFF3FBFBF00A0B6210100CE
:1010B000FFEFEA10D210BA10000C400040004000D0
:1010C0004000400040004000400040004000400020
:1010D0004000FFFFFFFFFFFFFFFFFFFFFFFFFFFFDE
:1010E000FFFFFFFFFFFFFFFFFFFF00801FEE0081FC
:1010F0001FEF00811FBF01D11FFF00D11EFF21D1B3
:101100003EBFB5210100BFFE28111C1110110006C1
:10111000020002000200020002000200FFFFFFFFC7
:10112000FFFFFFFFFFFFFFFF4080488049805182A3
:1011300021834182B4210100C32162115211421165
:101140000008800080008000800080008000800017
:101150008000FF3FFF3FFF3FFF3FFF3FFF3FFF3F5D
:10116000FF3F00A003A000A107A10FA118A132A179
:1011700021A3B3210100FF83C411A211801100112A
:101180000000000002000200020002000200020053
:101190000200020002000200020000000000000045
:1011A0000000FF83FF83FFFFFFFFFFFFFFFFFFFF45
:1011B000FFFFFFFFFFFFFFFFFFFFFFFFFFFFFFFF3F
:1011C000FFFFFFFF0280018000800483718E41AF2A
:1011D000419F41FF418341A3419341B3418B43ABC5
:1011E00042AB40AB4283B2210100FF833C12181294
:1011F000F4110012000002000200020002000200CE
:1012000002000200020002000200020002000000D0
:101210000000000000000200FF83FFFFFFFFFFFF50
:10122000FFFFFFFFFFFFFFFFFFFFFFFFFFFFFFFFCE
:10123000FFFFFFFFFFFFFFFFFFFFFF830280008034
:10124000008004834181018300831DB8718741E7D9
:10125000418341A3419343B342B340B342834183AB
:10126000B1210100FF83AE128E126E120010000039
:101270000000020002000200020002000200020060
:101280000200020002000000000000000200FFFF58
:10129000FFFFFFFFFFFFFFFFFFFFFFFFFFFFFFFF5E
:1012A000FFFFFFFFFFFFFFFFFFFFFFFFFF83028046
:1012B00042834181018301810180718E41AF419F51
:1012C00041FF418341A34393419340834183B02134
:1012D0000100FF831413F812DC12000E020002005A
:1012E00002000200020002000200020002000200EE
:1012F0000200000000000000FFFFFFFFFFFFFFFFF4
:10130000FFFFFFFFFFFFFFFFFFFFFFFFFFFFFFFFED
:10131000FFFFFFFF008040835DBA41875DE74183A7
:1013200041A3419341B3418B41AB439B419B4083DC
:10133000F81C00005535461342133E13000200000E
:101340000000FF3FFF3FAAAA15B5AE210100B7F686
:1013500080136C135813000A000000000000000006
:10136000000000000000000000000000FFFFFFFF81
:10137000FFFFFFFFFFFFFFFFFFFFFFFFFFFFFFFF7D
:101380005ADB6DED48896C9B12A436B649895BAD7A
:10139000259237B6AD210100B7F6CA13B613A213D2
:1013A000000A000000000000000000000000000033
:1013B000000000000000FFFFFFFFFFFFFFFFFFFF37
:1013C000FFFFFFFFFFFFFFFFFFFF7FBF25D2008072
:1013D00024925AAD7EBF018013A46D9B12E4A92113
:1013E0000100BFFE34141014EC13001200000000C2
:1013F00000000000000000000000000000000000ED
:1014000000000000000000000000000000000000DC
:10141000FFFFFFFFFFFFFFFFFFFFFFFFFFFFFFFFDC
:10142000FFFFFFFFFFFFFFFFFFFFFFFFFFFFFFFFCC
:10143000FFFFFFFF29EA17D414CA68D428EA56F43C
:1014400016CA6AD42AEA56F42994158B29AA15B526
:101450002B92178D2BAA17B5A7210100CFFFAE1431
:101460008A14661400120000000000000000000052
:10147000000000000000000000000000000000006C
:1014800000000000000000000000FFFFFFFFFFFF62
:10149000FFFFFFFFFFFFFFFFFFFFFFFFFFFFFFFF5C
:1014A000FFFFFFFFFFFFFFFFFFFFFFFFFFFF6AD50B
:1014B00065AA27F818802BFC14842DFA12822EFEC0
:1014C00011862FB910C12FDD10A52FEB10932FF728
:1014D000108FF71C00005F370015F014E0140008AF
:1014E00000000000000000000000000000000000FC
:1014F000FF3FFF3FFF3FFF3FFF3FFF3FFF3FFF3FFC
:1015000000E004F109E20DF312E416F51BE6BFFF5B
:10151000A42101009F9E461532151E15000A0000E9
:1015200000000000000000000000000000000000BB
:101530000000FFFFFFFFFFFFFFFFFFFFFFFFFFFFB9
:10154000FFFFFFFFFFFF7AF56FBF05D40ACB4DD435
:101550004ECB2FCA2FD56FDA6FDDA32101009FDE9E
:1015600090157C156815000A0000000000000000BE
:10157000000000000000000000000000FFFFFFFF6F
:10158000FFFFFFFFFFFFFFFFFFFFFFFFFFFFFFFF6B
:101590007FBF7F9C6F9F17BE1BBF5DBE5EBF3FAE10
:1015A0003FB77FBAA121010080F8F215D215B2151C
:1015B000001000000000000000000000000000001B
:1015C000000000000000000000000000000000001B
:1015D0000000FFFFFFFFFFFFFFFFFFFFFFFFFFFF19
:1015E000FFFFFFFFFFFFFFFFFFFFFFFFFFFFFFFF0B
:1015F000FFFF7E877DC77BA777E76F975FD73FB7F2
:101600007FF67F8D7FCB7FAF7FEF7F9F7FDF7FBFB9
:101610007FFF9C2101005F3F44163216201600090F
:1016200000000000000000000000000000000000BA
:101630000000FF3FFF3FFF3FFF3FFF3FFF3FFF3FF8
:10164000FF3FFF3FA0A0A1A1A2A2A3A3A8A8A9A970
:10165000AAAAABAB1FBFF61C000055356C16681666
:101660006416000200000000FF3FFF3FAAAA15B564
:101670009B21010087F096168A167E160006000050
:1016800000000000000000000000FFFFFFFFFFFF60
:10169000FFFFFFFFFFFF7DEF7BDF70876AAB5C9D85
:1016A0003EBE9A210100BF80E016C816B016000C9D
:1016B000000000000000000000000000000000002A
:1016C0000000000000000000FFFFFFFFFFFFFFFF22
:1016D000FFFFFFFFFFFFFFFFFFFFFFFFFFFFFFFF1A
:1016E0007FFF58FF5FFF40FF60BF61DF62EF63F77E
:1016F00064FB65FD66FE27FF99210100BF80361758
:101700001E170617000C000000000000000000007B
:101710000000000000000000000000000000FFFFCB
:10172000FFFFFFFFFFFFFFFFFFFFFFFFFFFFFFFFC9
:10173000FFFFFFFFFFFF7FFF50FF5FFF40FF60BF26
:1017400061DF62EF63F764FB65FD66FE27FF9821AA
:1017500001005B3B6C1764175C170004000000007D
:1017600000000000FF3FFF3FFF3FFF3F00E0ADED07
:10177000B6F61BFB95210100FFFEBA179E178217D4
:10178000000E00000000000000000000000000004B
:101790000000000000000000000000000000FFFF4B
:1017A000FFFFFFFFFFFFFFFFFFFFFFFFFFFFFFFF49
:1017B000FFFFFFFFFFFFFFFFFFFF008101810381AC
:1017C000008F0F811F8100FF7F817F837F877F8F45
:1017D0007F9F7FBF7FFE942101005B3BF417EC17D6
:1017E000E41700040000000000000000FF3FFF3F7E
:1017F000FF3FFF3FA4E4ADEDB6F61BFBF51C000078
:101800005F3F2E181C180A18000900000000000095
:10181000000000000000000000000000FF3FFF3F4C
:10182000FF3FFF3FFF3FFF3FFF3FFF3FFF3FA0E086
:10183000A1E1A2E2A3E3A8E8A9E9AAEAABEB1FFFB2
:101840008E2101005B3B5E1856184E180004000004
:10185000000000000000FF3FFF3FFF3FFF3FBFFFD2
:1018600009F2A4E4B6ED8D2101005B3B94188418C5
:1018700074180008000000000000000000000000D4
:1018800000000000FF3FFF3FFF3FFF3FFF3FFF3FE4
:10189000FF3FFF3FB6ED00E0ADF6BFFFBDFEAFF787
:1018A000AFFEBDF78B2101008787CA18BE18B2189A
:1018B0000006000000000000000000000000FFFF24
:1018C000FFFFFFFFFFFFFFFFFFFF48C84BCB4ACAE8
:1018D0004FCF48C84DCDF41C00005F370419F418F1
:1018E000E4180008000000000000000000000000F4
:1018F00000000000FF3FFF3FFF3FFF3FFF3FFF3F74
:10190000FF3FFF3FA0E8A4F9A9EAADFBB2ECB6FDAA
:10191000BBEE1FF7812101004F3E3A192E19221903
:101920000006011001100110011001100110FF3F0D
:10193000FF3FFF3FFF3FFF3FFF3F10E116ED18E382
:101940001CE1AAEA1EEF802101008FFE74196419C0
:1019500054190008011001100110011001100110AC
:1019600001100110FFFFFFFFFFFFFFFFFFFFFFFF61
:10197000FFFFFFFF10E116ED68826E8268E21CE750
:101980006AEA1EEFF31C00005F37B219A219921920
:10199000000800000000000000000000000000003F
:1019A0000000FF3FFF3FFF3FFF3FFF3FFF3FFF3F85
:1019B000FF3F00E010F40AE205E10FE31AF615F527
:1019C000BFFF7D2101009FFCF019E019D01900082C
:1019D0000808080808080808080808080808080887
:1019E000FFFFFFFFFFFFFFFFFFFFFFFFFFFFFFFF07
:1019F000508556B521C227F651C533E635D637F6A0
:101A00007B210100C93F261A1A1A0E1A0006000986
:101A100000090009000900090009FF3FFF3FFF3FDF
:101A2000FF3FFF3FFF3F22E0ABE422F295F22AF6B0
:101A30009DF6F21C00005F37601A501A401A000829
:101A40000000000000000000000000000000000096
:101A5000FF3FFF3FFF3FFF3FFF3FFF3FFF3FFF3F96
:101A6000A0E8A4F9A9EAADFBB2ECB6FDBBEE1FF706
:101A7000F11C00005B3B8E1A861A7E1A00040000DF
:101A8000000000000000FF3FFF3FFF3FFF3FBFFFA0
:101A900009E912F200E0F01C00005B3BB41AAC1A3A
:101AA000A41A00040000000000000000FF3FFF3FF8
:101AB000FF3FFF3F00E012F209E9BFFFEF1C00000B
:101AC0005535D21ACE1ACA1A000200000000FF3F94
:101AD000FF3FBFFF00E0EE1C00005535EC1AE81A8E
:101AE000E41A000200000000FF3FFF3FAAEA15F5DC
:101AF000ED1C00005535061B021BFE1A00020000FB
:101B00000000FF3FFF3FAAEA15F5EC1C0000553529
:101B1000201B1C1B181B000200000000FF3FFF3FA2
:101B2000AAEA15F5EB1C00005B3B421B3A1B321B7B
:101B300000040000000000000000FF3FFF3FFF3FE7
:101B4000FF3FA4E4ADEDB6F61BFBEA1C0000F62D4A
:101B5000681B601B581B0004000000000000000010
:101B6000FF3FFF3FFF3FFF3F09F292E424E9B6ED5C
:101B7000E91C0000F62D8E1B861B7E1B0004000056
:101B8000000000000000FF3FFF3FFF3FFF3F09F262
:101B90009BF62DFBB6EDE81C00005B3BB41BAC1BB9
:101BA000A41B00040000000000000000FF3FFF3FF6
:101BB000FF3FFF3FA4E4ADEDB6F61BFBDC110000D8
:101BC000EAEADA1BD21BCA1B000400000000000076
:101BD0000000FFFFFFFFFFFFFFFF159525B54ADA65
:101BE0006AEABF110000FF80001CF81BF01B000414
:101BF0000000000000000000FFFFFFFFFFFFFFFFED
:101C000009FF118607FD0D80B41100009F9E3E1C48
:101C10002A1C161C000A0000000000000000000042
:101C200000000000000000000000FFFFFFFFFFFFBA
:101C3000FFFFFFFFFFFFFFFFFFFFFFFFFFFF008032
:101C400010C078A174A032A131A050B150A810A545
:101C500010A2B1110000FFFC701C681C601C000485
:101C60000000000000000000FFFFFFFFFFFFFFFF7C
:101C70000BEB2BE8759754D4A8110000C3C3B21C1A
:101C80009C1C861C000B01010101010101010101E5
:101C9000010101010101010101010101C3C3FFFFB4
:101CA000FFFFFFFFFFFFFFFFFFFFFFFFFFFFFFFF44
:101CB000FFFF42C206860A8A0E8E129216961A9A62
:101CC0001E9E22A226A62AAAA7110000FFE1EE1C52
:101CD000E21CD61C0006000000000000000000000E
:101CE0000000FFFFFFFFFFFFFFFFFFFFFFFF7EC0C2
:101CF0004CEA1AB735F149A967AFA6110000C3C372
:101D0000241D161D081D000701010101010101012B
:101D1000010101010101C3C3C3C3FFFFFFFFFFFFB7
:101D2000FFFFC3C342C2008042C20080068608880B
:101D30000282A0110000FFDF881D641D401D0012FB
:101D40000000000000000000000000000000000093
:101D50000000000000000000000000000000000083
:101D600000000000FFFFFFFFFFFFFFFFFFFFFFFF7F
:101D7000FFFFFFFFFFFFFFFFFFFFFFFFFFFFFFFF73
:101D8000FFFFFFFFFFFFFFFF7E8101A07D8502A413
:101D90007B8904A8778D08AC6F9110B05F9520E423
:101DA0003F9940B87F9C00BD009F7FFC9F110000C1
:101DB000FF80CE1DC41DBA1D0005000000000000FC
:101DC00000000000FFFFFFFFFFFFFFFFFFFF08FF16
:101DD0004C8C4EF60CDF04809E1100009DDBFA1D3A
:101DE000F01DE61D0005004000400040004000409E
:101DF000FFFFFFFFFFFFFFFFFFFF69B240A660A6E6
:101E000040A460A097110000ABEA221E1A1E121E09
:101E100000040000000000000000FFFFFFFFFFFFC4
:101E2000FFFF5DB3778D18DF66F4021000009FFCA2
:101E3000641E4E1E381E000B000000000000000053
:101E40000000000000000000000000000000FFFF94
:101E5000FFFF9FFC9FFCFFFFFFFFFFFFFFFFFFFF58
:101E6000FFFFFFFF42A156B51EBC1EBC3EBE5C9DDF
:101E700056B55EBD2EBA4C995EBDFE0F000085C002
:101E8000C01EA41E881E000E0000040004000400F2
:101E90000400040004000400040004000400040022
:101EA0000000000085C08FC09FC0BFC0FFC0FFE022
:101EB000FFF0FFF8FFFCFFFDFFFDFFFDFFFDFFFD55
:101EC00001C00BC011C02BC051C02BE051D02BE87A
:101ED00051D42BE851D552D42BE879BCFD0F00002A
:101EE000F339FA1EF21EEA1E000400000000000092
:101EF0000000FF3FFF3FFF3FFF3F0CA69DAE2EB708
:101F0000B3B9F20F0000FE2F3C1F261F101F000B5D
:101F100000000000000000000000000000000000C1
:101F2000000000000000FF3FFF3FFF3FFF3FFF3F7B
:101F3000FF3FFF3FFF3FFF3FFF3FFF3F00A002A1EA
:101F400004A206A308A40AA50CA60EA790AE12A987
:101F50001FBFF10F0000F339701F681F601F0004DE
:101F60000000000000000000FF3FFF3FFF3FFF3F79
:101F7000B8A391A822B107BCEE0F0000FF2FAE1F3F
:101F80009A1F861F000A00000000000000000000E9
:101F900000000000000000000000FF3FFF3FFF3F87
:101FA000FF3FFF3FFF3FFF3FFF3FFF3FFF3F1FAFB1
:101FB0000AA514AA18AC06A300AF00B01FA716AF5D
:101FC0001CAEED0F0000F339E01FD81FD01F000436
:101FD0000000000000000000FF3FFF3FFF3FFF3F09
:101FE0000CA691A822B1BFBFEC0F0000C3FF0220D6
:101FF000FC1FF61F0003400040004000FFFFFFFFF2
:10200000FFFF3CBC14A82894EB0F0000DF3C3620F7
:10201000262016200008000000000000000000003C
:10202000000000000000FF3FFF3FFF3FFF3FFF3F7A
:10203000FF3FFF3FFF3F00E0ACE729EBADEF33F39D
:10204000B6F73BFBBFE7E90F0000DF3C74206420DC
:102050005420000800000000000000000000000004
:1020600000000000FF3FFF3FFF3FFF3FFF3FFF3FFC
:10207000FF3FFF3F00E084E409E88DEC13F096F4A5
:1020800013F8BFFFE80F0000FE2FBE20A82092200B
:10209000000B000000000000000000000000000035
:1020A0000000000000000000FF3FFF3FFF3FFF3F38
:1020B000FF3FFF3FFF3FFF3FFF3FFF3FFF3F00E08E
:1020C00003F105F207F309F40BF50DF60FF711F81C
:1020D00013F91FFFE70F0000F339F220EA20E22096
:1020E00000040000000000000000FF3FFF3FFF3F32
:1020F000FF3FB8E39DEE2EF707FCE60F0000F33933
:102100001821102108210004000000000000000038
:10211000FF3FFF3FFF3FFF3F00E09DEE2EF7B3F98B
:10212000E50F00005535362132212E210002000036
:102130000000FF3FFF3FAAEA15F5E40F0000FF2F64
:1021400070215C214821000A00000000000000000E
:10215000000000000000000000000000FF3FFF3F03
:10216000FF3FFF3FFF3FFF3FFF3FFF3FFF3FFF3F7F
:102170001EEF0AF514FA18FC06F300FF00F01EF734
:1021800016FF1CFEE20F0000F93CA2219A219221C9
:1021900000040000000000000000FF3FFF3FFF3F81
:1021A000FF3F06E38FE730F8BFFFD50F0000F79F32
:1021B000CC21C221B8210005000000000000000071
:1021C0000000F79FFFFFFFFFFFFFFFFF12881AE8E5
:1021D0000EE919EA1AF4D30F0000FBFF28220622A9
:1021E000E4210011000000000000000000000000D9
:1021F00000000000000000000000000000000000DF
:10220000000000000000FFFFFFFFFFFFFFFFFFFFD8
:10221000FFFFFFFFFFFFFFFFFFFFFFFFFFFFFFFFCE
:10222000FFFFFFFFFFFFFFFF1BE81BDC1BBA1BF6D6
:102230001AF90BFD19FB13FF049004A404C2049EB9
:102240000581148506830C873FE8D10F0000D5B5C2
:1022500060225C225822000200000000FFFFFFFF06
:102260004DB633A9D00F0000FEFF82227A227222DF
:1022700000040000000000000000FFFFFFFFFFFF60
:10228000FFFF0380169417950281CC0F0000FCEC31
:10229000A4229E2298220003000000000000FDFFFF
:1022A000FDFFFDFF39BB7DFF54C4CB0F0000FCFCDC
:1022B000C822C022B8220004000000000000000074
:1022C000FFFFFFFFFFFFFFFF54C43BAB13837FFF04
:1022D000CA0F0000F8B0EA22E422DE220003000068
:1022E00000000000FFFFFFFFFFFF4BB65BB634C9E5
:1022F000C90F0000643206230223FE220002000000
:102300000000FF3FFF3FADB612A9C80F0000808656
:10231000542336231823000F00020002000200029B
:10232000000200020002000200020002000200029D
:102330000002000200028086FFFFFFFFFFFFFFFF99
:10234000FFFFFFFFFFFFFFFFFFFFFFFFFFFFFFFF9D
:10235000FFFFFFFF008400814080408120802081BA
:102360006080608110801081508050813080308189
:102370007080BF0F000083C2902388238023000455
:102380000200020002000200E3C2E3C2E3C2E3C2B1
:1023900020C0408021824082BE0F0000F339B62366
:1023A000AE23A62300040000000000000000FF3F51
:1023B000FF3FFF3FFF3F9DAE2EB700A0B3B9BD0F5B
:1023C00000009DDB2424F823CC23001600400040AD
:1023D00000400040004000400040004000400040FD
:1023E00000400040004000400040004000400040ED
:1023F0000040004000400140FFFFFFFFFFFFFFFFE4
:10240000FFFFFFFFFFFFFFFFFFFFFFFFFFFFFFFFDC
:10241000FFFFFFFFFFFFFFFFFFFFFFFFFFFFFFFFCC
:10242000FFFFFFFF418260824086608640A260A27B
:1024300040A660A642822280428060A440A460A0A0
:1024400040A060844084608050800080628040BEF4
:10245000BC0F0000809E862472245E24000A0000C7
:10246000000000000000000000000000000000006C
:102470000000FFFFFFFFFFFFFFFFFFFFFFFFFFFF6A
:10248000FFFFFFFFFFFF048000A2048000D201884D
:10249000208A4098089A00851086BB0F0000FC9F98
:1024A000D024BC24A824000A00000000040004007A
:1024B000040004000010001000100010FFFFFFFFD8
:1024C000FFFFFFFFFFFFFFFFFFFFFFFFFFFFFFFF1C
:1024D00051C52AAA21A012A031A032A002C202A492
:1024E00002C602A6B90F0000DF3C12250225F22425
:1024F00000080000000000000000000000000000D4
:102500000000FF3FFF3FFF3FFF3FFF3FFF3FFF3F19
:10251000FF3F20A384A409A88DAC12B096B41BB8C9
:102520009FBCB80F0000432068254C253025000EC5
:102530000100010001000100010001000100010093
:1025400001000100010001000100010043207F2D76
:102550007F2D7F2D7F2D7F2D7F2D7F2D7F2D7F2D1B
:102560007F2D7F2D7F2D7F2D02A000A800A400AC21
:1025700000A100A900A500AD20A020A820A420ACA7
:1025800020A102A0B70F0000DF3CB225A2259225B2
:102590000008000000000000000000000000000033
:1025A0000000FF3FFF3FFF3FFF3FFF3FFF3FFF3F79
:1025B000FF3F20A3A4A729ABADAF32B3B6B73BBB57
:1025C0009FBCB60F000080F0F825E425D025000A56
:1025D00000200020002000200020002000200020FB
:1025E00000200020DFFEDFFEDFFEDFFEDFFEDFFE7D
:1025F000DFFEDFFEDFFEDFFE02C8018804884088C0
:10260000008408801080008202880298B40F0000C5
:10261000808662263E261A26001200000000000274
:10262000000200020002000200020002000200029A
:102630000002000200020002000200020002FFFF8E
:10264000FFFFFFFFFFFFFFFFFFFFFFFFFFFFFFFF9A
:10265000FFFFFFFFFFFFFFFFFFFFFFFFFFFFFFFF8A
:10266000FFFF0084008000810080008100800081E5
:1026700000800081408040814080408140804081D6
:10268000408040811080019D000099E7CC26B02653
:102690009426000E00000000000000000000000072
:1026A000000000000000000000000000000000002A
:1026B00099FFFFFFFFFFFFFFFFFFFFFFFFFFFFFF90
:1026C000FFFFFFFFFFFFFFFFFFFFFFFF18FF7CDBA8
:1026D0006C9C7A9C6A9C7E9C6E94189C089C1C9CAA
:1026E000149C189C108C7E9C009D000099E72E275E
:1026F0001227F626000E0000000000000000000077
:1027000000000000000000000000000000000000C9
:10271000000099FFFFFFFFFFFFFFFFFFFFFFFFFF2D
:10272000FFFFFFFFFFFFFFFFFFFFFFFFFFFF19FEA0
:102730003FDA2E9C589C489C5C9C4C94189C089CAE
:102740001C9C149C189C108C3C9CB30F0000FFE157
:1027500070276427582700060000000000000000D2
:1027600000000000FFFFFFFFFFFFFFFFFFFFFFFF75
:102770007FFF7FFE7FC000F1558F55BEB20F000076
:10278000C7EBB2279E278A27000A002000200020DE
:102790000020002000200020002000200020FFFF5B
:1027A000FFFFFFFFFFFFFFFFFFFFFFFFFFFFFFFF39
:1027B000FFFF39DD299D219D019D01990089388BFD
:1027C000388439942994EF9C00009999E427DC27F8
:1027D000D42700040001000100010001FFFFFFFFFA
:1027E000FFFFFFFF5BDA25A424A43CBCEE9C0000A5
:1027F000ADB50A280228FA270004000100010001F3
:102800000001FFFFFFFFFFFFFFFF7FFE0180008051
:102810002CB4B10F000080F0502838282028000C7C
:1028200000200020002000200020002000200020A8
:102830000020002000200020FFFFFFFFFFFFFFFF20
:10284000FFFFFFFFFFFFFFFFFFFFFFFFFFFFFFFF98
:1028500004C8028808884088008A0180108020808F
:102860000081008404880498E29C0000FF83AA2869
:1028700090287628000D02000200000002000200ED
:102880000200020002000000000000000000020040
:10289000FF83FFFFFFFFFFFFFFFFFFFFFFFFFFFFC4
:1028A000FFFFFFFFFFFFFFFFFF831C811DB841BB40
:1028B000418741E7418341A3419343B342B340B3CE
:1028C00042834183E19C0000FF830229EA28D22849
:1028D000000C0200020002000000020002000200E0
:1028E00002000000000000000200FF83FFFFFFFF66
:1028F000FFFFFFFFFFFFFFFFFFFFFFFFFFFFFFFFE8
:10290000FF833481348335AC41AF419F41FF418324
:1029100041A34393419340834183B00F0000F93CAE
:102920003829302928290004000000000000000098
:10293000FF3FFF3FFF3FFF3F06A38FA730B8BFBF5A
:10294000AF0F0000E1E1622958294E29000501017D
:102950000101010101010101FFFFFFFFFFFFFFFF77
:10296000FFFF20A050D058D85CDC0E8EAD0F0000C9
:10297000FC278A2982297A29000404040404040417
:102980000404FF3FFF3FFF3FFF3F0AAAA1B002A898
:1029900011B1AC0F00005E2FB029A829A0290004B6
:1029A00000000000000000005F3F5F3F5F3F5F3FAF
:1029B00001B00BB515BA1EAFAB0F0000F339D62925
:1029C000CE29C62900040000000000000000FF3FDF
:1029D000FF3FFF3FFF3FB4A59DAE2EB70BBAAA9CA9
:1029E00000005535F429F029EC2900020000000010
:1029F000FF3FFF3FAAAA15B5AA0F0000D5A50E2AD2
:102A00000A2A062A000200000000FFEFFFEF7FEF16
:102A10000180A90F0000D5A5282A242A202A000217
:102A200000000000FFEFFFEF2BCA55A5A20F00002A
:102A3000FE2F622A4E2A3A2A000A000000000000F7
:102A40000000000000000000000000000000FF3F48
:102A5000FF3FFF3FFF3FFF3FFF3FFF3FFF3FFF3F86
:102A6000FF3F10231021102F182C062F04221E2F99
:102A700001300A25142AA10F0000F339942A8C2A68
:102A8000842A00040000000000000000FF3FFF3F18
:102A9000FF3FFF3F0C2622319128B339A00F0000E1
:102AA000DF3CCE2ABC2AAA2A000900000000000050
:102AB000000000000000000000000000FF3FFF3F9A
:102AC000FF3FFF3FFF3FFF3FFF3FFF3FFF3FA02292
:102AD000202310250829182D043114350C391C3DEC
:102AE00011241FBECFE5D8E0DEBFCDBF11E0A0E6C8
:102AF000B0E0E0EBF1E302C005900D92AC3FB1070E
:102B0000D9F722E0ACEFB1E001C01D92A43DB207BD
:102B1000E1F70E944D170C94D6180C94000081E048
:102B20008093FC011092FD0195B3892785BB089520
:102B30008ABB97BB08958BBB98BB08952BB3282BFA
:102B40002BBB28B3292B28BB2DE02A95F1F70000D9
:102B50002BB3809582238BBB88B39095982398BB29
:102B6000089529B386B390E0982F8827822B9093FD
:102B70008902809388020895CF92DF92EF92FF92AC
:102B80001F93CF93DF937C01FC01848195810E9488
:102B9000981510E029C0C12FD0E0CC0FDD1FCE0169
:102BA000845F9D4F6C01FC01808191810E949B1587
:102BB000FE01E65BFD4F808191810E949E150E947F
:102BC000B115C657DD4F2881398182239323F60141
:102BD000208131818217930731F080E090E00E94DC
:102BE000981580E006C01F5FF7018585181798F2D9
:102BF00081E0DF91CF911F91FF90EF90DF90CF9018
:102C0000089510BC83E389B988E08AB986E880BD5D
:102C10000895CF92DF92EF92FF920F931F93CF937D
:102C2000DF93EA016115710581059105D1F480E317
:102C30008883198239C08E010C0D1D1D2AE030E0F9
:102C400040E050E00E94AB18605DF8016083622FA5
:102C5000732F842F952FFFEFCF1ADF0AEF0AFF0A99
:102C600003C0C12CD12C7601611571058105910538
:102C700011F7FE01EC0DFD1D108221E0C21AD108F2
:102C800080E090E00EC0DE01A80FB91F2C91FE017C
:102C9000EC0DFD1D30813C9320830196E1E0CE1ABE
:102CA000D1088C159D057CF3DF91CF911F910F9179
:102CB000FF90EF90DF90CF90089580E090E008C003
:102CC000FC01EE0FFF1FE45FFD4F118210820196A1
:102CD00020916400309165008217930788F308956E
:102CE00080E090E008C0FC01EE0FFF1FE657FD4FAB
:102CF0001182108201962091640030916500821744
:102D0000930788F3089580E090E008C0FC01EE0F7F
:102D1000FF1FE65BFD4F1182108201962091640037
:102D2000309165008217930788F3089595B39F7ECD
:102D300095BB95B3907F282F22952F70922B95BB32
:102D400095B3906295BB92E09A95F1F700C095B368
:102D50009F7D95BBEFE8F1E03197F1F700C00000EF
:102D600095B3907F8F70892B85BB85B3806285BBBF
:102D7000F2E0FA95F1F700C085B38F7D85BB85E061
:102D80008A95F1F70000089581E00E9496168FE978
:102D90009FE00197F1F700C00000089595B390619E
:102DA00095BB95B3907F282F22952F70922B95BBC2
:102DB00095B3906295BB92E09A95F1F700C095B3F8
:102DC0009F7D95BBEFE8F1E03197F1F700C000007F
:102DD00095B3907F8F70892B85BB85B3806285BB4F
:102DE000F2E0FA95F1F700C085B38F7D85BB85E0F1
:102DF0008A95F1F700000895CF93DF93EC0109C0A5
:102E00000E94CE1621968FE19EE40197F1F700C053
:102E1000000088818111F4CFDF91CF910895813036
:102E200011F480E001C080E4860F80680E9496164D
:102E300008958FEF84BB15BA8FE39CE90197F1F7F2
:102E400000C0000083E30E94961682E30E9496165B
:102E500088E20E9496168CE00E94961686E00E94F8
:102E600096160E94C41663E081E00E940F178BEC57
:102E700091E00E94FC1661E082E00E940F1785ED50
:102E800091E00E94FC16089580E690E00E94FA17F7
:102E90000E9401160E94191708950E9444178091FC
:102EA000FC018823E1F35AC0E12FF0E0EE0FFF1F91
:102EB000E959FF4F608171814EE050E08EEF91E063
:102EC0000E94CD18CEEFD1E04D856E817F8150E01C
:102ED000440F551F8CE092E00E94CD184D85688507
:102EE000798550E0440F551F8AE892E00E94CD1882
:102EF0004D856A857B8550E0440F551F8AE492E03A
:102F00000E94CD18CE010E94BC158093FD0188233C
:102F1000E9F06091FE017091FF01809100029091B3
:102F2000010248EC52E00E9409166BE082E00E9428
:102F30000F178BEE91E00E94FC166BE082E00E947E
:102F40000F1788EC92E00E94FC160EC00E945D16DE
:102F50000E9470160E9483161F5F01C010E08091CE
:102F60006600181708F4A0CF8091FD01811110C0F0
:102F700061E082E00E940F1780EE91E00E94FC1653
:102F800063E082E00E940F1781EF91E00E94FC163F
:102F90001092FC0184CF9BB79F7B9BBF95B79C7F12
:102FA00095BF95B7892B85BF8BB780648BBF08957C
:102FB0009BB79F779BBF95B7937F95BF25B790E051
:102FC000880F991F880F991F822B85BF8BB7806848
:102FD0008BBF08959BB79F7D9BBF833021F484B73F
:102FE000806484BF03C084B78F7B84BF8BB780624B
:102FF0008BBF0895CF93DF93009729F1EC0188816F
:1030000081110AC089810E94CB178A819B8190938C
:10301000CF028093CE0217C0813051F489810E9483
:10302000D8178A819B819093D3028093D2020BC0E0
:10303000823049F489810E94EA178A819B819093AA
:10304000D1028093D0027894DF91CF9108951F929E
:103050000F920FB60F9211242F933F934F935F93CC
:103060006F937F938F939F93AF93BF93EF93FF9350
:103070008AB78F7B8ABFE091CE02F091CF02309762
:1030800009F00995FF91EF91BF91AF919F918F91B9
:103090007F916F915F914F913F912F910F900FBE54
:1030A0000F901F9018951F920F920FB60F92112438
:1030B0002F933F934F935F936F937F938F939F9340
:1030C000AF93BF93EF93FF938AB78F778ABFE09157
:1030D000D202F091D302309709F00995FF91EF9158
:1030E000BF91AF919F918F917F916F915F914F9120
:1030F0003F912F910F900FBE0F901F9018951F9228
:103100000F920FB60F9211242F933F934F935F931B
:103110006F937F938F939F93AF93BF93EF93FF939F
:103120008AB78F7D8ABFE091D002F091D1023097AB
:1031300009F00995FF91EF91BF91AF919F918F9108
:103140007F916F915F914F913F912F910F900FBEA3
:103150000F901F901895A1E21A2EAA1BBB1BFD0110
:103160000DC0AA1FBB1FEE1FFF1FA217B307E40766
:10317000F50720F0A21BB30BE40BF50B661F771FBE
:10318000881F991F1A9469F760957095809590959E
:103190009B01AC01BD01CF010895FB01DC0102C020
:1031A00005900D9241505040D8F70895F894FFCF04
:1031B00000038F151F00B29C2A762A2C2A122AF8A7
:1031C00029DE29B82992296C2940291A29C428689E
:1031D000281228EC27C6277C274A27E82686260CB3
:1031E00026C22584252225E4249A245024BE23982F
:1031F0002372230A23F022D022AA228A2264224A9E
:1032000022D621AA2184213A212021FA20D4208407
:103210002046200820E81FC21F781F521F021FDC13
:103220001E7A1E2A1E041ED81DAC1D321DFA1CC893
:103230001C781C521C081CE21BBC1B961B701B4AF2
:103240001B241B0A1BF01AD61ABC1A961A701A32C3
:103250001A001AC219841946191419D618A4186626
:10326000184018FC17D61774174E17F816A21670C8
:103270001656161216A4155A151015D2145814DE27
:103280001394134A133013CE126012E611721134E4
:10329000110211AC1092102A10F80FD20F8E0F7479
:1032A0000F300FEC0EB40EEC0D540D1C0DD80CB2FB
:1032B0000C440CFA0BD40BAE0B400B020BC40A7A75
:1032C0000A300AF209CC0982095C091E09F808BA19
:1032D00008880856080008BC07A20758073207F4F8
:1032E00006C206960670064A062406FE05D8058222
:1032F000051A05D6048C044204F803D20388033E61
:10330000031E03E602AE0282025C022402E601A86A
:10331000014C010E01D0007A00540049432054654D
:1033200073746572004943204E616D65203A200038
:10333000202020202020202020202020202020208D
:0C334000004E6F7420466F756E64000034
:00000001FF
