:100000000C94A5150C9423190C944F190C947B197E
:100010000C94C2150C94C2150C94C2150C94C21504
:100020000C94C2150C94C2150C94C2150C94C215F4
:100030000C94C2150C94C2150C94C2150C94C215E4
:100040000C94C2150C94C2150C94C2150C94C215D4
:100050000C94C215BA2101009FFC76006C0062006E
:10006000100500000000000000000000FFFFFFFF7F
:10007000FFFFFFFFFFFF00883CB8129918B409CAC0
:10008000C0210100ED36AE009E008E000E08A000DB
:10009000A000A000A000A000A000A000A000FF3FC2
:1000A000FF3FFF3FFF3FFF3FFF3FFF3FFF3F01207D
:1000B00000201E3F0633183C003F1E3000303E1D1E
:1000C00000005B3BDC00D400CC000E04000000000C
:1000D00000000000FF3FFF3FFF3FFF3F0020B6361C
:1000E000AD2D1B3B3D1D00008FFF22010A01F200D8
:1000F000100C0000000000000000000000000000E4
:1001000000000000000000000000FFFFFFFFFFFFF5
:10011000FFFFFFFFFFFFFFFFFFFFFFFFFFFFFFFFEF
:10012000FFFF12EA499513D548AA13C948B613CE62
:1001300048B119CC42B325CC0AB3331D00007E1858
:10014000680158014801100800000000001000106C
:100150000010080008000800FFFFFFFFFFFFFFFF7F
:10016000FFFFFFFFFFFFFFFF99349124F2A4F54446
:10017000F6C4B0C250C570C3321D00004F3EA60188
:10018000960186010E080400040004000400000427
:10019000000400040004FF3FFF3FFF3FFF3FFF3F1D
:1001A000FF3FFF3FFF3FAA229122A9229B22A82ABC
:1001B0002831A832283B301D00005F3FF801DE01E6
:1001C000C4010E0D0008000800080008000800081F
:1001D0000008000800080008000800080008FF3FA9
:1001E000FF3FFF3FFF3FFF3FFF3FFF3FFF3FFF3F1F
:1001F000FF3FFF3FFF3FFF3F3C308227823082318D
:1002000082332237223026302E309E303E379E37C2
:100210009A36291D00007F3F4002300220020E085E
:1002200000000000000000000000000000000000CE
:10023000FF3FFF3FFF3FFF3FFF3FFF3FFF3FFF3FCE
:100240008020AA35952A3F3F062038200027013814
:10025000261D00005F3F7E026E025E020E08000057
:100260000000000000000000000000000000FF3F50
:10027000FF3FFF3FFF3FFF3FFF3FFF3FFF3F9F3FEE
:10028000202083209C208027803835352A2A251D70
:1002900000007F3CB802AA029C020E07000000008A
:1002A00000000000000000000000FF3FFF3FFF3F94
:1002B000FF3FFF3FFF3FFF3FBF3F15342A2800208D
:1002C0000721B820003E241D0000FF30E402DC02BC
:1002D000D4020E040000000000000000FF3FFF3FBA
:1002E000FF3FFF3FBF3695292A39002965230100CA
:1002F000FFFE0E030403FA021005000800080008C0
:1003000000040004FFFEFFFFFFFFFFFFFFFF55B0EB
:1003100055A255A255B355B26323010080BE4203D6
:10032000340326031007000000000004000400044A
:100330000004000880BEFFFFFFFFFFFFFFFFFFFF7D
:10034000FFFF0080008200A200A200A200A207E23C
:100350005D230100FFFE7A036C035E0310070008B3
:10036000000000000004000400040004FFFEFFFF82
:10037000FFFFFFFFFFFFFFFFFFFF55B255A355B380
:1003800055B255B355925593221D00005F3FA2030D
:100390009C0396030E03000000000000FF3FFF3F98
:1003A000FF3FBF3FA73800201F1D00007F3FDE0337
:1003B000CA03B6030E0A000000000000000000009F
:1003C00000000000000000000000FF3FFF3FFF3F73
:1003D000FF3FFF3FFF3FFF3FFF3FFF3FFF3F0F213B
:1003E000003F813B82398337843585338631872FBF
:1003F000882D1B1D00005F3F2804140400040E0A12
:1004000000000000000000000000000000000000EC
:1004100000000000FF3FFF3FFF3FFF3FFF3FFF3F68
:10042000FF3FFF3FFF3FFF3F2133A232A521862040
:10043000A82130239822AD2033309E301A1D0000B1
:100440005F3F5A0452044A040E04000000000000FA
:100450000000FF3FFF3FFF3FFF3FA0281F3BAB29AE
:100460001938171D0000F780980484047004100ADE
:10047000000000000000000000000000000000007C
:1004800000000000FFFFFFFFFFFFFFFFFFFFFFFF78
:10049000FFFFFFFFFFFFFFFF1CA04CF31DC44DC17A
:1004A0001E934E891F984FE33C806C83161D0000FD
:1004B000F780E204CE04BA04100A00000000000035
:1004C0000000000000000000000000000000FFFF2E
:1004D000FFFFFFFFFFFFFFFFFFFFFFFFFFFFFFFF2C
:1004E000FFFF1CA04CF31DC44DC11E934E891F98E5
:1004F0004FE33C806C83121D000080F82C0518052A
:100500000405100A000000000000000000000000C8
:100510000000000000000000FFFFFFFFFFFFFFFFE3
:10052000FFFFFFFFFFFFFFFFFFFFFFFF7E877DC78E
:100530007BA777E76F975FD73FB77FF67F8D7FCB3E
:10054000101D00005F3F720560054E050E0900009A
:10055000000000000000000000000000000000009B
:10056000FF3FFF3FFF3FFF3FFF3FFF3FFF3FFF3F9B
:10057000FF3FA020A121A222A323A828A929AA2ABB
:10058000AB2B1F3F992201004338CE05B0059205E1
:100590000E0F00000000000000000000000000003E
:1005A000000000000000000000000000000000004B
:1005B000433843384338FF3FFF3FFF3FFF3FFF3F94
:1005C000FF3FFF3FFF3FFF3FFF3FFF3FFF3F002059
:1005D00000200020033801300424053408220932A9
:1005E0000C260D36102111311425153596220100E7
:1005F0008BE82A061206FA05100C000000000140E4
:1006000001400140014001400140014001400140E2
:1006100001408BE8FFFFFFFFFFFFFFFFFFFFFFFF32
:10062000FFFFFFFFFFFFFFFFFFFF02A0008004901E
:100630001084149420822492308634964081449110
:10064000008092220100F3396006580650060E041D
:100650000000000000000000FF3FFF3FFF3FFF3FA2
:1006600000209D2E2E37B3390E1D00005B3B860601
:100670007E0676060E040000000000000000FF3F2A
:10068000FF3FFF3FFF3FA424AD2DB6361B3B872223
:100690000100C9C9AC06A4069C06100400000000B5
:1006A00000000000FFFFFFFFFFFFFFFF2AAA5DDD44
:1006B00055D514940D1D00005B3BD206CA06C20638
:1006C0000E040000000000000000FF3FFF3FFF3F5E
:1006D000FF3FA424AD2DB6361B3B80220100ABEAC0
:1006E000F806F006E8061004000000000000000014
:1006F000FFFFFFFFFFFFFFFF7FFF559554952AAADD
:100700007F220100ABEA220718070E071005000040
:100710000000000000000000FFFFFFFFFFFFFFFFE1
:10072000ABEA7FFF00807EBF608002827E220100F4
:10073000ABEA520746073A07100600000000000027
:10074000000000000000FFFFFFFFFFFFFFFFFFFFB3
:10075000FFFF559554D57FFF7EFF2AAA54957D2231
:100760000100ABEA8C077C076C0710080000000052
:10077000000000000000000000000000FFFFFFFF7D
:10078000FFFFFFFFFFFFFFFFFFFFFFFF7FFF7EFF7A
:100790007EBF00807FBF7EFF559554D5081D0000A9
:1007A0005B3BBA07B207AA070E0400000000000076
:1007B0000000FF3FFF3FFF3FFF3F0020B62DAD365B
:1007C000BF3F061D00007F3FF807E407D0070E0A71
:1007D0000000000000000000000000000000000019
:1007E00000000000FF3FFF3FFF3FFF3FFF3FFF3F95
:1007F000FF3FFF3FFF3FFF3F3F2CBE2CBD2CBB2CDC
:10080000B72CAF2C9F2CBF28BF2481203A22010097
:10081000FF8722081E081A08100200040004FFFFC8
:10082000FFFF25D125AB362201009BE4580846087E
:100830003408100908000800080008000800080033
:100840000800080008009BE4DFE4DFE4DFE4DFE405
:10085000DFE4DFE4DFE4DFE401800184018441843C
:100860004184018401844184418435220100673E32
:10087000A808900878080E0C000000000000000096
:100880000000000000000000000000000000000068
:10089000FF3FFF3FFF3FFF3FFF3FFF3FFF3FFF3F68
:1008A000FF3FFF3FFF3FFF3F003E002600250027A0
:1008B00010231027082308271823182780238027B0
:1008C000342201009BEFE608DA08CE08100600008B
:1008D000080008000800080008009BEFFFFFFFFF6A
:1008E000FFFFFFFFFFFF01800184018441844184F9
:1008F00001842B220100F6ED18090C0900091006ED
:10090000000000000000000000000000FFFFFFFFEB
:10091000FFFFFFFFFFFFFFFF008048807FFF2DBA32
:1009200031E24E9D28220100CF3F5209420932098F
:100930000E080000000000000000000000000000A1
:100940000000FF3FFF3FFF3FFF3FFF3FFF3FFF3FF5
:10095000FF3F2935922AAB3F1020AB30203F233395
:100960009826041D0000F62D8009780970090E04F0
:100970000000000000000000FF3FFF3FFF3FFF3F7F
:10098000093292242429B62D031D00005F37B609D1
:10099000A60996090E0800000000000000000000F3
:1009A000000000000000FF3FFF3FFF3FFF3FFF3F11
:1009B000FF3FFF3FFF3FA028043109220D331224DF
:1009C00015351B261F371A220100F339E409DC090B
:1009D000D4090E040000000000000000FF3FFF3FAC
:1009E000FF3FFF3F0C2691282231BF3F1422010018
:1009F000CF3F220A0E0AFA090E0A0000000000008A
:100A00000000000000000000000000000000FF3FA8
:100A1000FF3FFF3FFF3FFF3FFF3FFF3FFF3FFF3FE6
:100A2000FF3F302085320A2D8B3D042E8F3F8120E1
:100A30000737862B8D39021D00005B3B540A4C0A98
:100A4000440A0E040000000000000000FF3FFF3FCA
:100A5000FF3FFF3FA424AD36B62D1B3B1322010000
:100A600087F08A0A7A0A6A0A10080000000000006B
:100A700000000000000000000000FFFFFFFFFFFF7C
:100A8000FFFFFFFFFFFFFFFFFFFF01A002B004B069
:100A90000890119022904390049112220100B7F621
:100AA000D00ABC0AA80A100A0000000000000000DA
:100AB000000000000000000000000000FFFFFFFF3A
:100AC000FFFFFFFFFFFFFFFFFFFFFFFFFFFFFFFF36
:100AD00048C97FFF48896C9B12A436B649895BAD33
:100AE000259237B611220100B7F61A0B060BF20A4F
:100AF000100A0000000000000000000000000000DC
:100B0000000000000000FFFFFFFFFFFFFFFFFFFFEF
:100B1000FFFFFFFFFFFFFFFFFFFF48C97FFF0080D0
:100B200024925AAD7EBF018013A46D9B7FBF0D221E
:100B30000100BFFE5C0B4C0B3C0B100800000000DA
:100B4000000000000000000000000000FFFFFFFFA9
:100B5000FFFFFFFFFFFFFFFFFFFFFFFF41C17FFF21
:100B60000080608300A050A502804A890B2201000A
:100B7000CFFF9A0B8A0B7A0B1008000000000000D0
:100B800000000000000000000000FFFFFFFFFFFF6B
:100B9000FFFFFFFFFFFFFFFFFFFF25A815D425D2B2
:100BA00015D615D125D515D325D7011D00005F3FDA
:100BB000F80BD80BB80B0E1000000000000000006E
:100BC0000000000000000000000000000000000025
:100BD0000000000000000000FF3FFF3FFF3FFF3F1D
:100BE000FF3FFF3FFF3FFF3FFF3FFF3FFF3FFF3F15
:100BF000FF3FFF3FFF3FFF3F0525062607270C2C41
:100C00000D2D0E2E0F2F14341535163617371C3CAC
:100C10001D3D1E3E1F3FA42403220100C33F360C8E
:100C20002E0C260C0E040000000000000000FF3F08
:100C3000FF3FFF3FFF3FBD370130BC2700200222AE
:100C40000100C33F5C0C540C4C0C0E04000000006F
:100C500000000000FF3FFF3FFF3FFF3F3D30813777
:100C600080273C20FD210100BF809A0C860C720C6D
:100C7000100A00000000000000000000000000005A
:100C8000000000000000BF80FFFFFFFFFFFFFFFF2D
:100C9000FFFFFFFFFFFFFFFFFFFF1080188020C056
:100CA00021A0229023882484258226816780FE1C2F
:100CB00000005F3FFC0CDC0CBC0C0E1000000000C0
:100CC0000000000000000000000000000000000024
:100CD000000000000000000000000000FF3FFF3F98
:100CE000FF3FFF3FFF3FFF3FFF3FFF3FFF3FFF3F14
:100CF000FF3FFF3FFF3FFF3FFF3FFF3FA020A121FE
:100D0000A222A323A828A929AA2AAB2BB030B1314B
:100D1000B232B333B838B939BA3A1B3BFD1C0000C4
:100D20005B3B3A0D320D2A0D0E040000000000005E
:100D30000000FB3BFB3BFB3BFB3BBB3B123209296F
:100D40000020FC1C00005F3F740D620D500D0E0969
:100D50000000000000000000000000000000000093
:100D60000000FF3FFF3FFF3FFF3FFF3FFF3FFF3FD1
:100D7000FF3FFF3FA020A121A222A323A828A92949
:100D8000AA2AAB2B1F3FD3210100FF83B00DA20D78
:100D9000940D10070002000200020002000200028F
:100DA0000002FFFFFFFFFFFFFFFFFFFFFFFFFFFF4F
:100DB0000084018401850585018507C503A5D2212D
:100DC0000100FF87280EFA0DCC0D10170004000457
:100DD00000040004000400040004000400040004F3
:100DE00000040004000400040004000400040004E3
:100DF00000040004000400040004FFFFFFFFFFFFE5
:100E0000FFFFFFFFFFFFFFFFFFFFFFFFFFFFFFFFF2
:100E1000FFFFFFFFFFFFFFFFFFFFFFFFFFFFFFFFE2
:100E2000FFFFFFFFFFFFFFFF00807E8301807FFB4E
:100E30003DFB43833FC143E143F143F901B97D9950
:100E400041BA7FFA01F23FE201E07FE07FCA7F9A78
:100E50007FBA7FFA7E83D121010099E7E00EA20ECE
:100E6000640E101F000000000000080008000800C9
:100E70000800080008000800080008000800080032
:100E8000080008000800000000000000000000004A
:100E900010001000100010001000100010001000D2
:100EA0000020FFFFFFFFFFFFFFFFFFFFFFFFFFFF30
:100EB000FFFFFFFFFFFFFFFFFFFFFFFFFFFFFFFF42
:100EC000FFFFFFFFFFFFFFFFFFFFFFFFFFFFFFFF32
:100ED000FFFFFFFFFFFFFFFFFFFFFFFFFFFFFFFF22
:100EE0005B993CDA7FDB73DF75DF71DF57DF53DF40
:100EF00055DF51DF37DF33DF35DF31DF17DF13DF5A
:100F000015DF19DF11CF7FDF6FD719DF0DDF0BDFA3
:100F10000FDF29DF2DDF2BDF2FDF49DF19DFD021A6
:100F2000010099FF480F3A0F2C0F10070000000036
:100F300000000000000000000000FFFFFFFFFFFFB7
:100F4000FFFFFFFFFFFFFFFF18BD189D5899589D39
:100F5000489D5C9D4C95CF21010099E7880F760F45
:100F6000640F100900200020002000200020002035
:100F7000002000200020FFFFFFFFFFFFFFFFFFFF1B
:100F8000FFFFFFFFFFFFFFFF00900894049402940F
:100F900006942094169412941494CE21010099E79B
:100FA000CC0FBA0FA80F100900200020002000204D
:100FB00000200020002000200020FFFFFFFFFFFF97
:100FC000FFFFFFFFFFFFFFFFFFFFFFFF0090089401
:100FD0000494029406942094169412941494C621B6
:100FE0000100BFF0F40FF00FEC0F10020000000042
:100FF000FFFFFFFF739B15A2FA1C00005F3F2A1042
:10100000181006100E09000000000000000000008B
:101010000000000000000000FF3FFF3FFF3FFF3FD8
:10102000FF3FFF3FFF3FFF3FFF3FA020A121A22244
:10103000A323A828A929AA2AAB2B1F3FBF2101005F
:1010400099995A1052104A10100400010001000131
:101050000001FFFFFFFFFFFFFFFF24A43CBC5BDAA2
:1010600025A4BE210100ADB588107C1070101006BB
:10107000000100010001000100010001FFFFFFFF6E
:10108000FFFFFFFFFFFFFFFF00802CB4679819E60A
:101090007FFE2CB4BD210100C3FFDE10C010A210E2
:1010A000100F400040004000400040004000400061
:1010B0004000400040004000400040004000400030
:1010C000FFFFFFFFFFFFFFFFFFFFFFFFFFFFFFFF30
:1010D000FFFFFFFFFFFFFFFFFFFFFFFFFFFF00C05E
:1010E00000FF289428A928AA28AB14A814951496C0
:1010F00014972894308C00FF0CB000FFF91C0000FE
:10110000553512110E110A110E0200000000FF3FAA
:10111000FF3FBF3F0020B6210100FFEF54113C11FB
:101120002411100C400040004000400040004000EE
:10113000400040004000400040004000FFFFFFFF33
:10114000FFFFFFFFFFFFFFFFFFFFFFFFFFFFFFFFAF
:10115000FFFFFFFF00801FEE00811FEF00811FBF18
:1011600001D11FFF00D11EFF21D13EBFB5210100DB
:10117000BFFE921186117A111006020002000200D1
:10118000020002000200FFFFFFFFFFFFFFFFFFFF63
:10119000FFFF408048804980518221834182B421F1
:1011A0000100C321CC11BC11AC110E0880008000DD
:1011B000800080008000800080008000FF3FFF3FB3
:1011C000FF3FFF3FFF3FFF3FFF3FFF3F0020032068
:1011D000002107210F21182132212123B3210100F1
:1011E000FF832E120C12EA11101100000000020001
:1011F00002000200020002000200020002000200DF
:10120000020002000000000000000000FF83FF83D6
:10121000FFFFFFFFFFFFFFFFFFFFFFFFFFFFFFFFDE
:10122000FFFFFFFFFFFFFFFFFFFFFFFFFFFF02804A
:10123000018000800483718E41AF419F41FF418353
:1012400041A3419341B3418B43AB42AB40AB42839B
:10125000B2210100FF83A61282125E12101200005A
:10126000020002000200020002000200020002006E
:101270000200020002000200000000000000000066
:101280000200FF83FFFFFFFFFFFFFFFFFFFFFFFFE6
:10129000FFFFFFFFFFFFFFFFFFFFFFFFFFFFFFFF5E
:1012A000FFFFFFFFFF8302800080008004834181F5
:1012B000018300831DB8718741E7418341A34193B6
:1012C00043B342B340B342834183B1210100FF8362
:1012D0001813F812D81210100000000002000200CB
:1012E00002000200020002000200020002000200EE
:1012F0000000000000000200FFFFFFFFFFFFFFFFF4
:10130000FFFFFFFFFFFFFFFFFFFFFFFFFFFFFFFFED
:10131000FFFFFFFFFFFFFF830280428341810183C4
:1013200001810180718E41AF419F41FF418341A303
:101330004393419340834183B0210100FF837E1397
:1013400062134613100E02000200020002000200A7
:101350000200020002000200020002000000000081
:101360000000FFFFFFFFFFFFFFFFFFFFFFFFFFFF8B
:10137000FFFFFFFFFFFFFFFFFFFFFFFFFFFF0080FB
:1013800040835DBA41875DE7418341A3419341B307
:10139000418B41AB439B419B4083F81C000055357A
:1013A000B013AC13A8130E0200000000FF3FFF3F74
:1013B000AA2A1535AE210100B7F6EA13D613C213D7
:1013C000100A000000000000000000000000000003
:1013D000000000000000FFFFFFFFFFFFFFFFFFFF17
:1013E000FFFFFFFFFFFFFFFFFFFF5ADB6DED4889A7
:1013F0006C9B12A436B649895BAD259237B6AD21F8
:101400000100B7F6341420140C14100A0000000078
:1014100000000000000000000000000000000000CC
:10142000FFFFFFFFFFFFFFFFFFFFFFFFFFFFFFFFCC
:10143000FFFFFFFF7FBF25D2008024925AAD7EBF01
:10144000018013A46D9B12E4A9210100BFFE9E142C
:101450007A14561410120000000000000000000072
:10146000000000000000000000000000000000007C
:1014700000000000000000000000FFFFFFFFFFFF72
:10148000FFFFFFFFFFFFFFFFFFFFFFFFFFFFFFFF6C
:10149000FFFFFFFFFFFFFFFFFFFFFFFFFFFF29EA47
:1014A00017D414CA68D428EA56F416CA6AD42AEAA9
:1014B00056F42994158B29AA15B52B92178D2BAAB2
:1014C00017B5A7210100CFFF1815F414D01410127E
:1014D000000000000000000000000000000000000C
:1014E00000000000000000000000000000000000FC
:1014F00000000000FFFFFFFFFFFFFFFFFFFFFFFFF8
:10150000FFFFFFFFFFFFFFFFFFFFFFFFFFFFFFFFEB
:10151000FFFFFFFFFFFFFFFF6AD565AA27F81880CE
:101520002BFC14842DFA12822EFE11862FB910C1C5
:101530002FDD10A52FEB10932FF7108FF71C000055
:101540005F376A155A154A150E08000000000000A2
:1015500000000000000000000000FF3FFF3FFF3FD1
:10156000FF3FFF3FFF3FFF3FFF3F002004310922C5
:101570000D33122416351B26BF3FA42101009F9E68
:10158000B0159C158815100A00000000000000002E
:10159000000000000000000000000000FFFFFFFF4F
:1015A000FFFFFFFFFFFFFFFFFFFFFFFFFFFFFFFF4B
:1015B0007AF56FBF05D40ACB4DD44ECB2FCA2FD5A9
:1015C0006FDA6FDDA32101009FDEFA15E615D21553
:1015D000100A0000000000000000000000000000F1
:1015E000000000000000FFFFFFFFFFFFFFFFFFFF05
:1015F000FFFFFFFFFFFFFFFFFFFF7FBF7F9C6F9F8E
:1016000017BE1BBF5DBE5EBF3FAE3FB77FBAA12115
:10161000010080F85C163C161C161010000000003B
:1016200000000000000000000000000000000000BA
:10163000000000000000000000000000FFFFFFFFAE
:10164000FFFFFFFFFFFFFFFFFFFFFFFFFFFFFFFFAA
:10165000FFFFFFFFFFFFFFFFFFFFFFFF7E877DC74D
:101660007BA777E76F975FD73FB77FF67F8D7FCBFD
:101670007FAF7FEF7F9F7FDF7FBF7FFF9C210100D8
:101680005F3FAE169C168A160E090000000000008F
:10169000000000000000000000000000FF3FFF3FCE
:1016A000FF3FFF3FFF3FFF3FFF3FFF3FFF3FA020C8
:1016B000A121A222A323A828A929AA2AAB2B1F3F34
:1016C000F61C00005535D616D216CE160E020000B6
:1016D0000000FF3FFF3FAA2A15359B21010087F03C
:1016E0000017F416E81610060000000000000000C5
:1016F00000000000FFFFFFFFFFFFFFFFFFFFFFFFF6
:101700007DEF7BDF70876AAB5C9D3EBE9A21010056
:10171000BF804A1732171A17100C00000000000093
:1017200000000000000000000000000000000000B9
:101730000000FFFFFFFFFFFFFFFFFFFFFFFFFFFFB7
:10174000FFFFFFFFFFFFFFFFFFFF7FFF58FF5FFF70
:1017500040FF60BF61DF62EF63F764FB65FD66FE1B
:1017600027FF99210100BF80A01788177017100C60
:101770000000000000000000000000000000000069
:101780000000000000000000FFFFFFFFFFFFFFFF61
:10179000FFFFFFFFFFFFFFFFFFFFFFFFFFFFFFFF59
:1017A0007FFF50FF5FFF40FF60BF61DF62EF63F7C5
:1017B00064FB65FD66FE27FF982101005B3BD617A1
:1017C000CE17C6170E040000000000000000FF3F07
:1017D000FF3FFF3FFF3F0020AD2DB6361B3B95215D
:1017E0000100FFFE24180818EC17100E000000007E
:1017F00000000000000000000000000000000000E9
:101800000000000000000000FFFFFFFFFFFFFFFFE0
:10181000FFFFFFFFFFFFFFFFFFFFFFFFFFFFFFFFD8
:10182000FFFFFFFF008101810381008F0F811F8176
:1018300000FF7F817F837F877F8F7F9F7FBF7FFEBA
:10184000942101005B3B5E1856184E180E040000F0
:10185000000000000000FF3FFF3FFF3FFF3FA424C8
:10186000AD2DB6361B3BF51C00005F3F981886185F
:1018700074180E09000000000000000000000000C5
:10188000000000000000FF3FFF3FFF3FFF3FFF3F22
:10189000FF3FFF3FFF3FFF3FA020A121A222A32344
:1018A000A828A929AA2AAB2B1F3F8E2101005B3B48
:1018B000C818C018B8180E0400000000000000008E
:1018C000FF3FFF3FFF3FFF3FBF3F0932A424B62D3C
:1018D0008D2101005B3BFE18EE18DE180E0800009B
:1018E0000000000000000000000000000000FF3FBA
:1018F000FF3FFF3FFF3FFF3FFF3FFF3FFF3FB62D53
:101900000020AD36BF3FBD3EAF37AF3EBD378B2168
:1019100001008787341928191C19100600000000DF
:101920000000000000000000FFFFFFFFFFFFFFFFBF
:10193000FFFFFFFF48C84BCB4ACA4FCF48C84DCD29
:10194000F41C00005F376E195E194E190E08000076
:101950000000000000000000000000000000FF3F49
:10196000FF3FFF3FFF3FFF3FFF3FFF3FFF3FA028FD
:10197000A439A92AAD3BB22CB63DBB2E1F3781211D
:1019800001004F3EA41998198C190E060110011080
:101990000110011001100110FF3FFF3FFF3FFF3F0B
:1019A000FF3FFF3F1021162D18231C21AA2A1E2FAE
:1019B000802101008FFEDE19CE19BE19100801101A
:1019C0000110011001100110011001100110FFFFA2
:1019D000FFFFFFFFFFFFFFFFFFFFFFFFFFFF10E124
:1019E00016ED68826E8268E21CE76AEA1EEFF31C5D
:1019F00000005F371C1A0C1AFC190E0800000000CA
:101A0000000000000000000000000000FF3FFF3F5A
:101A1000FF3FFF3FFF3FFF3FFF3FFF3F00201034EE
:101A20000A2205210F231A361535BF3F7D210100FB
:101A30009FFC5A1A4A1A3A1A100808080808080897
:101A400008080808080808080808FFFFFFFFFFFF4C
:101A5000FFFFFFFFFFFFFFFFFFFF508556B521C2CD
:101A600027F651C533E635D637F67B210100C93F4D
:101A7000901A841A781A0E06000900090009000954
:101A800000090009FF3FFF3FFF3FFF3FFF3FFF3FD0
:101A90002220AB24223295322A369D36F21C0000D9
:101AA0005F37CA1ABA1AAA1A0E080000000000000E
:101AB00000000000000000000000FF3FFF3FFF3F6C
:101AC000FF3FFF3FFF3FFF3FFF3FA028A439A92A68
:101AD000AD3BB22CB63DBB2E1F37F11C00005B3B6B
:101AE000F81AF01AE81A0E040000000000000000C6
:101AF000FF3FFF3FFF3FFF3FBF3F0929123200205A
:101B0000F01C00005B3B1E1B161B0E1B0E0400008E
:101B1000000000000000FF3FFF3FFF3FFF3F0020AD
:101B200012320929BF3FEF1C000055353C1B381B02
:101B3000341B0E0200000000FF3FFF3FBF3F0020AC
:101B4000EE1C00005535561B521B4E1B0E020000AA
:101B50000000FF3FFF3FAA2A1535ED1C0000553558
:101B6000701B6C1B681B0E0200000000FF3FFF3F54
:101B7000AA2A1535EC1C000055358A1B861B821BD2
:101B80000E0200000000FF3FFF3FAA2A1535EB1CA4
:101B900000005B3BAC1BA41B9C1B0E040000000060
:101BA00000000000FF3FFF3FFF3FFF3FA424AD2D9B
:101BB000B6361B3BEA1C0000F62DD21BCA1BC21B0B
:101BC0000E040000000000000000FF3FFF3FFF3F49
:101BD000FF3F093292242429B62DE91C0000F62D7E
:101BE000F81BF01BE81B0E040000000000000000C2
:101BF000FF3FFF3FFF3FFF3F09329B362D3BB62D96
:101C0000E81C00005B3B1E1C161C0E1C0E04000092
:101C1000000000000000FF3FFF3FFF3FFF3FA42404
:101C2000AD2DB6361B3BDC110000EAEA441C3C1C1F
:101C3000341C10040000000000000000FFFFFFFF44
:101C4000FFFFFFFF159525B54ADA6AEABF110000CC
:101C5000FF806A1C621C5A1C100400000000000077
:101C60000000FFFFFFFFFFFFFFFF09FF118607FDD9
:101C70000D80B41100009F9EA81C941C801C100AAB
:101C80000000000000000000000000000000000054
:101C900000000000FFFFFFFFFFFFFFFFFFFFFFFF50
:101CA000FFFFFFFFFFFFFFFF008010C078A174A0BF
:101CB00032A131A050B150A810A510A2B11100005E
:101CC000FFFCDA1CD21CCA1C10040000000000003B
:101CD0000000FFFFFFFFFFFFFFFF0BEB2BE87597F7
:101CE00054D4A8110000C3C31C1D061DF01C100B0A
:101CF00001010101010101010101010101010101D4
:101D0000010101010101C3C3FFFFFFFFFFFFFFFF4F
:101D1000FFFFFFFFFFFFFFFFFFFFFFFF42C206863F
:101D20000A8A0E8E129216961A9A1E9E22A226A633
:101D30002AAAA7110000FFE1581D4C1D401D1006E6
:101D4000000000000000000000000000FFFFFFFF97
:101D5000FFFFFFFFFFFFFFFF7EC04CEA1AB735F120
:101D600049A967AFA6110000C3C38E1D801D721D57
:101D7000100701010101010101010101010101013E
:101D8000C3C3C3C3FFFFFFFFFFFFFFFFC3C342C2C5
:101D9000008042C20080068608880282A0110000EE
:101DA000FFDFF21DCE1DAA1D101200000000000072
:101DB0000000000000000000000000000000000023
:101DC0000000000000000000000000000000FFFF15
:101DD000FFFFFFFFFFFFFFFFFFFFFFFFFFFFFFFF13
:101DE000FFFFFFFFFFFFFFFFFFFFFFFFFFFFFFFF03
:101DF000FFFF7E8101A07D8502A47B8904A8778DE9
:101E000008AC6F9110B05F9520E43F9940B87F9C7B
:101E100000BD009F7FFC9F110000FF80381E2E1E1A
:101E2000241E100500000000000000000000FFFF5D
:101E3000FFFFFFFFFFFFFFFF08FF4C8C4EF60CDF9C
:101E400004809E1100009DDB641E5A1E501E10056A
:101E500000400040004000400040FFFFFFFFFFFF48
:101E6000FFFFFFFF69B240A660A640A460A09711E3
:101E70000000ABEA8C1E841E7C1E100400000000D3
:101E800000000000FFFFFFFFFFFFFFFF5DB3778D46
:101E900018DF66F4021000009FFCCE1EB81EA21EC2
:101EA000100B000000000000000000000000000017
:101EB0000000000000000000FFFFFFFF9FFC9FFCF0
:101EC000FFFFFFFFFFFFFFFFFFFFFFFFFFFF42A13D
:101ED00056B51EBC1EBC3EBE5C9D56B55EBD2EBA40
:101EE0004C995EBDFE0F000085C02A1F0E1FF21E1A
:101EF000100E0000040004000400040004000400AC
:101F0000040004000400040004000000000085C078
:101F10008FC09FC0BFC0FFC0FFE0FFF0FFF8FFFC15
:101F2000FFFDFFFDFFFDFFFDFFFD01C00BC011C068
:101F30002BC051C02BE051D02BE851D42BE851D508
:101F400052D42BE879BCFD0F0000F339641F5C1FED
:101F5000541F0E040000000000000000FF3FFF3F80
:101F6000FF3FFF3F0C269D2E2E37B339F20F0000A6
:101F7000FE2FA61F901F7A1F0E0B0000000000000E
:101F80000000000000000000000000000000000051
:101F9000FF3FFF3FFF3FFF3FFF3FFF3FFF3FFF3F51
:101FA000FF3FFF3FFF3F00200221042206230824B9
:101FB0000A250C260E27902E12291F3FF10F000034
:101FC000F339DA1FD21FCA1F0E0400000000000000
:101FD0000000FF3FFF3FFF3FFF3FB8239128223122
:101FE000073CEE0F0000FF2F18200420F01F0E0A00
:101FF00000000000000000000000000000000000E1
:1020000000000000FF3FFF3FFF3FFF3FFF3FFF3F5C
:10201000FF3FFF3FFF3FFF3F1F2F0A25142A182CC9
:102020000623002F00301F27162F1C2EED0F000057
:10203000F3394A2042203A200E040000000000003C
:102040000000FF3FFF3FFF3FFF3F0C26912822315A
:10205000BF3FEC0F0000C3FF6C2066206020100320
:10206000400040004000FFFFFFFFFFFF3CBC14A802
:102070002894EB0F0000DF3CA020902080200E0869
:102080000000000000000000000000000000000050
:10209000FF3FFF3FFF3FFF3FFF3FFF3FFF3FFF3F50
:1020A0000020AC27292BAD2F3333B6373B3BBF275E
:1020B000E90F0000DF3CDE20CE20BE200E0800002D
:1020C0000000000000000000000000000000FF3FD2
:1020D000FF3FFF3FFF3FFF3FFF3FFF3FFF3F00202E
:1020E000842409288D2C133096341338BF3FE80F11
:1020F0000000FE2F28211221FC200E0B0000000002
:1021000000000000000000000000000000000000CF
:102110000000FF3FFF3FFF3FFF3FFF3FFF3FFF3F0D
:10212000FF3FFF3FFF3FFF3F0020033105320733F2
:1021300009340B350D360F37113813391F3FE70FB0
:102140000000F3395C2154214C210E0400000000F2
:1021500000000000FF3FFF3FFF3FFF3FB8239D2EE1
:102160002E37073CE60F0000F33982217A217221D5
:102170000E040000000000000000FF3FFF3FFF3F93
:10218000FF3F00209D2E2E37B339E50F0000553557
:10219000A0219C2198210E0200000000FF3FFF3F7C
:1021A000AA2A1535E40F0000FF2FDA21C621B2213B
:1021B0000E0A000000000000000000000000000007
:1021C000000000000000FF3FFF3FFF3FFF3FFF3FD9
:1021D000FF3FFF3FFF3FFF3FFF3F1E2F0A35143AEF
:1021E000183C0633003F00301E37163F1C3EE20FFE
:1021F0000000F93C0C220422FC210E040000000027
:1022000000000000FF3FFF3FFF3FFF3F06238F27F7
:102210003038BF3FD50F0000F79F36222C222222F4
:10222000100500000000000000000000F79FFFFF05
:10223000FFFFFFFFFFFF12881AE80EE919EA1AF400
:10224000D30F0000FBFF922270224E2210110000DB
:10225000000000000000000000000000000000007E
:10226000000000000000000000000000000000006E
:10227000FFFFFFFFFFFFFFFFFFFFFFFFFFFFFFFF6E
:10228000FFFFFFFFFFFFFFFFFFFFFFFFFFFFFFFF5E
:10229000FFFF1BE81BDC1BBA1BF61AF90BFD19FB31
:1022A00013FF049004A404C2049E058114850683D0
:1022B0000C873FE8D10F0000D5B5CA22C622C22242
:1022C000100200000000FFFFFFFF4DB633A9D00F42
:1022D0000000FEFFEC22E422DC22100400000000DB
:1022E00000000000FFFFFFFFFFFFFFFF03801694C9
:1022F00017950281CC0F0000FCEC0E23082302236B
:102300001003000000000000FDFFFDFFFDFF39BBD2
:102310007DFF54C4CB0F0000FCFC32232A23222370
:1023200010040000000000000000FFFFFFFFFFFF9F
:10233000FFFF54C43BAB13837FFFCA0F0000F8B00C
:1023400054234E2348231003000000000000FFFF29
:10235000FFFFFFFF4BB65BB634C9C90F0000643204
:1023600070236C2368230E0200000000FF3FFF3F34
:10237000AD361229C80F00008086BE23A023822319
:10238000100F000200020002000200020002000220
:10239000000200020002000200020002000200022D
:1023A0008086FFFFFFFFFFFFFFFFFFFFFFFFFFFF35
:1023B000FFFFFFFFFFFFFFFFFFFFFFFFFFFF0084A7
:1023C0000081408040812080208160806081108079
:1023D000108150805081308030817080BF0F0000AC
:1023E00083C2FA23F223EA2310040200020002004F
:1023F0000200E3C2E3C2E3C2E3C220C04080218204
:102400004082BE0F0000F3392024182410240E044B
:102410000000000000000000FF3FFF3FFF3FFF3FC4
:102420009D2E2E370020B339BD0F00009DDB8E247A
:102430006224362410160040004000400040004056
:10244000004000400040004000400040004000408C
:10245000004000400040004000400040004000407C
:102460000140FFFFFFFFFFFFFFFFFFFFFFFFFFFF39
:10247000FFFFFFFFFFFFFFFFFFFFFFFFFFFFFFFF6C
:10248000FFFFFFFFFFFFFFFFFFFFFFFFFFFF418297
:1024900060824086608640A260A240A660A642821A
:1024A0002280428060A440A460A040A06084408458
:1024B000608050800080628040BEBC0F0000809E23
:1024C000F024DC24C824100A0000000000000000F2
:1024D000000000000000000000000000FFFFFFFF00
:1024E000FFFFFFFFFFFFFFFFFFFFFFFFFFFFFFFFFC
:1024F000048000A2048000D20188208A4098089AB3
:1025000000851086BB0F0000FC9F3A25262512256A
:10251000100A000000000400040004000400001081
:10252000001000100010FFFFFFFFFFFFFFFFFFFF85
:10253000FFFFFFFFFFFFFFFFFFFF51C52AAA21A0FA
:1025400012A031A032A002C202A402C602A6B90F94
:102550000000DF3C7C256C255C250E080000000097
:10256000000000000000000000000000FF3FFF3FEF
:10257000FF3FFF3FFF3FFF3FFF3FFF3F20238424FC
:1025800009288D2C123096341B389F3CB80F000060
:102590004320D225B6259A250E0E01000100010028
:1025A0000100010001000100010001000100010023
:1025B00001000100010043207F2D7F2D7F2D7F2D05
:1025C0007F2D7F2D7F2D7F2D7F2D7F2D7F2D7F2DAB
:1025D0007F2D022000280024002C00210029002546
:1025E000002D202020282024202C20210220B70F7D
:1025F0000000DF3C1C260C26FC250E080000000015
:10260000000000000000000000000000FF3FFF3F4E
:10261000FF3FFF3FFF3FFF3FFF3FFF3F2023A42738
:10262000292BAD2F3233B6373B3B9F3CB60F000012
:1026300080F062264E263A26100A00200020002054
:102640000020002000200020002000200020DFFECD
:10265000DFFEDFFEDFFEDFFEDFFEDFFEDFFEDFFE92
:10266000DFFE02C80188048840880084088010804A
:10267000008202880298B40F00008086CC26A8262B
:102680008426101200000000000200020002000276
:10269000000200020002000200020002000200022A
:1026A0000002000200020002FFFFFFFFFFFFFFFF2A
:1026B000FFFFFFFFFFFFFFFFFFFFFFFFFFFFFFFF2A
:1026C000FFFFFFFFFFFFFFFFFFFFFFFF0084008012
:1026D00000810080008100800081008000814080B6
:1026E0004081408040814080408140804081108016
:1026F000019D000099E736271A27FE26100E0000DC
:1027000000000000000000000000000000000000C9
:102710000000000000000000000099FFFFFFFFFF25
:10272000FFFFFFFFFFFFFFFFFFFFFFFFFFFFFFFFB9
:10273000FFFFFFFFFFFF18FF7CDB6C9C7A9C6A9C0D
:102740007E9C6E94189C089C1C9C149C189C108C5D
:102750007E9C009D000099E798277C276027100E3B
:102760000000000000000000000000000000000069
:1027700000000000000000000000000099FFFFFFC3
:10278000FFFFFFFFFFFFFFFFFFFFFFFFFFFFFFFF59
:10279000FFFFFFFFFFFFFFFF19FE3FDA2E9C589C53
:1027A000489C5C9C4C94189C089C1C9C149C189CF9
:1027B000108C5C9CB30F0000FFE1DA27CE27C22704
:1027C0001006000000000000000000000000FFFFF5
:1027D000FFFFFFFFFFFFFFFFFFFF7FFF7FFE7FC0C9
:1027E00000F1558F55BEB20F0000C7EB1C2808281A
:1027F000F427100A002000200020002000200020E4
:102800000020002000200020FFFFFFFFFFFFFFFF50
:10281000FFFFFFFFFFFFFFFFFFFFFFFF39DD299DE8
:10282000219D019D01990089388B38843994299420
:10283000EF9C000099994E2846283E28100400017C
:10284000000100010001FFFFFFFFFFFFFFFF5BDA58
:1028500025A424A43CBCEE9C0000ADB574286C28D3
:10286000642810040001000100010001FFFFFFFFC8
:10287000FFFFFFFF7FFE018000802CB4B10F00003E
:1028800080F0BA28A2288A28100C002000200020FE
:102890000020002000200020002000200020002038
:1028A0000020FFFFFFFFFFFFFFFFFFFFFFFFFFFF16
:1028B000FFFFFFFFFFFFFFFFFFFF04C8028808883C
:1028C0004088008A01801080208000810084048874
:1028D0000498E29C0000FF831429FA28E028100DD8
:1028E00002000200000002000200020002000200DA
:1028F00000000000000000000200FF83FFFFFFFF58
:10290000FFFFFFFFFFFFFFFFFFFFFFFFFFFFFFFFD7
:10291000FFFFFF831C811DB841BB418741E7418315
:1029200041A3419343B342B340B342834183E19C0B
:102930000000FF836C2954293C29100C020002007E
:10294000020000000200020002000200000000007D
:1029500000000200FF83FFFFFFFFFFFFFFFFFFFFFD
:10296000FFFFFFFFFFFFFFFFFFFFFF833481348383
:1029700035AC41AF419F41FF418341A34393419314
:1029800040834183B00F0000F93CA2299A29922983
:102990000E040000000000000000FF3FFF3FFF3F6B
:1029A000FF3F06238F273038BF3FAF0F0000E1E124
:1029B000CC29C229B8291005010101010101010139
:1029C0000101FFFFFFFFFFFFFFFFFFFF20A050D02F
:1029D00058D85CDC0E8EAD0F0000FC27F429EC29E2
:1029E000E4290E040404040404040404FF3FFF3F2C
:1029F000FF3FFF3F0A2AA13002281131AC0F00002F
:102A00005E2F1A2A122A0A2A0E0400000000000073
:102A100000005F3F5F3F5F3F5F3F01300B35153A7E
:102A20001E2FAB0F0000F339402A382A302A0E043B
:102A30000000000000000000FF3FFF3FFF3FFF3F9E
:102A4000B4259D2E2E370B3AAA9C000055355E2AE0
:102A50005A2A562A0E0200000000FF3FFF3FAA2A12
:102A60001535AA0F0000D5A5782A742A702A1002FD
:102A700000000000FFEFFFEF7FEF0180A90F0000D3
:102A8000D5A5922A8E2A8A2A100200000000FFEFA4
:102A9000FFEF2BCA55A5A20F0000FE2FCC2AB82AA3
:102AA000A42A0E0A00000000000000000000000040
:102AB0000000000000000000FF3FFF3FFF3FFF3F1E
:102AC000FF3FFF3FFF3FFF3FFF3FFF3F102310212E
:102AD000102F182C062F04221E2F01300A25142A2D
:102AE000A10F0000F339FE2AF62AEE2A0E04000098
:102AF000000000000000FF3FFF3FFF3FFF3F0C26AC
:102B000022319128B339A00F0000DF3C382B262B4F
:102B1000142B0E090000000000000000000000005F
:102B2000000000000000FF3FFF3FFF3FFF3FFF3F6F
:102B3000FF3FFF3FFF3FFF3FA02220231025082932
:102B4000182D043114350C391C3D11241FBECFE55E
:102B5000D8E0DEBFCDBF12E0A0E6B0E0E8EAF3E3E4
:102B600002C005900D92AE31B107D9F722E0AEE177
:102B7000B2E001C01D92A73FB207E1F70E944418DE
:102B80000C94D2190C94000081E080931E021092E4
:102B90001F022FEF8FE19AE0215080409040E1F733
:102BA00000C000000895282F2F772ABB0024880F2B
:102BB000991F001C880F991F001C892F902D8E7F54
:102BC00087BB0895282F2F772BBB0024880F991FD0
:102BD000001C880F991F001C892F902D8E7F88BBA9
:102BE00008953BB3282F2F77322B3BBB38B30024FB
:102BF000880F991F001C880F991F001C892F902D8A
:102C00008E7F932F982B98BB92E19A95F1F700C095
:102C10009BB3209529232BBB98B38095892388BB30
:102C2000089529B32F7786B38E7F30E4839FC00148
:102C30001124822B9093AB028093AA020895CF9225
:102C4000DF92EF92FF921F93CF93DF937C01FC0101
:102C5000848195810E94D31510E02CC0C12FD0E053
:102C6000CC0FDD1FCE01825D9D4F6C01FC01808188
:102C700091810E94E215FE01E459FD4F808191810E
:102C80000E94F1150E941116C355DD4F288139812C
:102C900082239323F601208131818217930731F03B
:102CA00080E090E00E94D31580E009C0F5E2FA953B
:102CB000F1F71F5FF7018585181780F281E0DF913A
:102CC000CF911F91FF90EF90DF90CF9008958ABB36
:102CD00097BB08958BBB98BB08952BB3282B2BBBB8
:102CE00028B3292B28BB22E12A95F1F700C02BB38A
:102CF000809582238BBB88B39095982398BB0895C9
:102D000029B386B390E0982F8827822B9093AB024B
:102D10008093AA020895CF92DF92EF92FF921F93C1
:102D2000CF93DF937C01FC01848195810E9467161B
:102D300010E02CC0C12FD0E0CC0FDD1FCE01825D92
:102D40009D4F6C01FC01808191810E946A16FE01F9
:102D5000E459FD4F808191810E946D160E9480167A
:102D6000C355DD4F2881398182239323F6012081C9
:102D700031818217930731F080E090E00E9467165E
:102D800080E009C0F5E2FA95F1F71F5FF70185854C
:102D9000181780F281E0DF91CF911F91FF90EF90A3
:102DA000DF90CF900895CF93FC019485903129F462
:102DB000CF010E948B16C82F08C09E3029F4CF0186
:102DC0000E941F16C82F01C0C1E080E090E00E9461
:102DD00067168C2FCF9108955D9BFECF8CB9089517
:102DE000CF93DF93EC0103C021960E94EC168881FB
:102DF0008111FACFDF91CF91089588E08AB986E8F2
:102E000080BD10BC87E489B98FEC91E00E94F01678
:102E10000895CF92DF92EF92FF920F931F93CF937B
:102E2000DF93EA016115710581059105D1F480E315
:102E30008883198239C08E010C0D1D1D2AE030E0F7
:102E400040E050E00E94A719605DF8016083622FA6
:102E5000732F842F952FFFEFCF1ADF0AEF0AFF0A97
:102E600003C0C12CD12C7601611571058105910536
:102E700011F7FE01EC0DFD1D108221E0C21AD108F0
:102E800080E090E00EC0DE01A80FB91F2C91FE017A
:102E9000EC0DFD1D30813C9320830196E1E0CE1ABC
:102EA000D1088C159D057CF3DF91CF911F910F9177
:102EB000FF90EF90DF90CF90089580E090E008C001
:102EC000FC01EE0FFF1FE25DFD4F118210820196A3
:102ED00020916400309165008217930788F308956C
:102EE00080E090E008C0FC01EE0FFF1FE355FD4FAE
:102EF0001182108201962091640030916500821742
:102F0000930788F3089580E090E008C0FC01EE0F7D
:102F1000FF1FE459FD4F1182108201962091640039
:102F2000309165008217930788F3089585B3806216
:102F300085BB84E08A95F1F785B38F7D85BB84E0FE
:102F40008A95F1F70895CF93C82F85B38F7E85BBFF
:102F500085B3807F9C2F92959F70892B85BB0E94A3
:102F6000961785B3807FCF70C82BC5BB0E9496177C
:102F700089E995E10197F1F700C0CF91089581307B
:102F800011F480E001C080E4860F80680E94A317DE
:102F90000895CF93C82F85B3806185BB85B3807FAB
:102FA0009C2F92959F70892B85BB0E94961785B3A5
:102FB000807FCF70C82BC5BB0E94961789E995E129
:102FC0000197F1F700C0CF910895CF93DF93EC0103
:102FD00003C00E94C917219688818111FACFDF9121
:102FE000CF9108958FEF84BB15BA8FEF97ED0197BE
:102FF000F1F700C0000083E00E94A3178FEF95E374
:103000000197F1F700C0000083E00E94A3178FEF43
:1030100095E30197F1F700C0000083E00E94A31739
:103020008FEF95E30197F1F700C0000082E00E9466
:10303000A31788E20E94A3178CE00E94A31781E0E7
:103040000E94A31789E995E10197F1F700C086E096
:103050000E94A31763E081E00E94BF178DEE91E00C
:103060000E94E51761E082E00E94BF1787EF91E0C0
:103070000E94E517089580E690E00E94F6180E94ED
:10308000FD160E94F21708950E943B1880911E02BF
:103090008823E1F31092AC025CC0F0E0EE0FFF1F5A
:1030A000E959FF4F608171814EE050E080E292E08B
:1030B0000E94C919C0E2D2E04D856E817F8150E047
:1030C000440F551F8EE292E00E94C9194D85688514
:1030D000798550E0440F551F8DEA92E00E94C9198E
:1030E0004D856A857B8550E0440F551F8CE692E044
:1030F0000E94C919CE010E94D31680931F02882313
:10310000E9F06BE082E00E94BF178CE092E00E9441
:10311000E517609120027091210280912202909126
:1031200023024BEE52E00E9409176BE082E00E94FE
:10313000BF178BEE92E00E94E51712C00E945D1748
:103140000E9470170E9483178091AC028F5F80935A
:10315000AC02E091AC0280916600E81708F49DCFC4
:1031600080911F02811110C061E082E00E94BF17B0
:1031700082E092E00E94E51763E082E00E94BF17C0
:1031800083E192E00E94E51710921E027FCF9BB769
:103190009F7B9BBF95B79C7F95BF95B7892B85BFBC
:1031A0008BB780648BBF08959BB79F779BBF95B704
:1031B000937F95BF25B790E0880F991F880F991FBF
:1031C000822B85BF8BB780688BBF08959BB79F7D8F
:1031D0009BBF833021F484B7806484BF03C084B76D
:1031E0008F7B84BF8BB780628BBF0895CF93DF93B3
:1031F000009729F1EC01888181110AC089810E9420
:10320000C7188A819B819093F2028093F10217C0C4
:10321000813051F489810E94D4188A819B819093D6
:10322000F6028093F5020BC0823049F489810E9436
:10323000E6188A819B819093F4028093F30278943C
:10324000DF91CF9108951F920F920FB60F92112424
:103250002F933F934F935F936F937F938F939F939E
:10326000AF93BF93EF93FF938AB78F7B8ABFE091B1
:10327000F102F091F202309709F00995FF91EF9178
:10328000BF91AF919F918F917F916F915F914F917E
:103290003F912F910F900FBE0F901F9018951F9286
:1032A0000F920FB60F9211242F933F934F935F937A
:1032B0006F937F938F939F93AF93BF93EF93FF93FE
:1032C0008AB78F778ABFE091F502F091F6023097C6
:1032D00009F00995FF91EF91BF91AF919F918F9167
:1032E0007F916F915F914F913F912F910F900FBE02
:1032F0000F901F9018951F920F920FB60F921124E6
:103300002F933F934F935F936F937F938F939F93ED
:10331000AF93BF93EF93FF938AB78F7D8ABFE091FE
:10332000F302F091F402309709F00995FF91EF91C3
:10333000BF91AF919F918F917F916F915F914F91CD
:103340003F912F910F900FBE0F901F901895A1E203
:103350001A2EAA1BBB1BFD010DC0AA1FBB1FEE1F0F
:10336000FF1FA217B307E407F50720F0A21BB30B5A
:10337000E40BF50B661F771F881F991F1A9469F7D6
:1033800060957095809590959B01AC01BD01CF0132
:103390000895FB01DC0102C005900D9241505040A0
:0833A000D8F70895F894FFCF5F
:1033A8000003C4151F00B4062BE02A962A7C2A6263
:1033B8002A482A222AFC29D629AA2984292E29D250
:1033C800287C2856283028E627B4275227F0267666
:1033D800262C26EE258C254E250425BA24282402E1
:1033E80024DC2374235A233A231423F422CE22B450
:1033F8002240221422EE21A4218A2164213E21EEBA
:1034080020B020722052202C20E21FBC1F6C1F46C7
:103418001FE41E941E6E1E421E161E9C1D641D3245
:103428001DE21CBC1C721C4C1C261C001CDA1BB4A4
:103438001B8E1B741B5A1B401B261B001BDA1A9C75
:103448001A6A1A2C1AEE19B0197E1940190E19D0D9
:1034580018AA1866184018DE17B81762170C17DA7A
:1034680016C0167C160E16C4157A153C15C21448DB
:1034780014FE13B4139A133813CA125012DC119E97
:10348800116C111611FC10941062103C10F80FDE2C
:103498000F9A0F560F1E0F560EBE0D860D420D1CAD
:1034A8000DAE0C640C3E0C180CAA0B6C0B2E0BE426
:1034B8000A9A0A5C0A360AEC09C6098809620924CC
:1034C80009F208C0086A0826080C08C2079C075EAB
:1034D800072C070007DA06B4068E0668064206ECD3
:1034E8000584054005F604AC0462043C04F203A814
:1034F80003880350031803EC02C6028E025002121E
:1035080002B60178013A01E400BE00800054003D93
:103518003D3D3D3D3D3D3D3D49435F5465737465CB
:10352800723D3D3D3D3D3D3D3D3D0A0D0049432039
:10353800546573746572004943204E616D65203A85
:103548002000202020202020202020202020202093
:0E3558002020004E6F7420466F756E640000D8
:00000001FF
